:08000000F0FF02203D44000066
:100400000000000000000000FFFFFFFFBE03FFFF31
:1004100070B504461046BDF810209D18B5F5007F54
:10042000C4BFC3F50075AAB225688D420BD00492F3
:1004300094F84850074A52F825500246AC462046E8
:10044000BDE8704060476169194401F0A4FE0020D6
:1004500070BD00BF2402FF1F7FB54A688368013268
:100460004A6090F82B600D46D11AB1FBF6F306FBFB
:10047000131304464BBB018B4B0428D5C1680231D2
:100480008A4233D021D32968066ACBB20222009275
:100490005B000DF10A0206EB1121FFF7B9FF18B15D
:1004A0006FF0030004B070BDBDF80A300393039BE6
:1004B00062689A421DD2626A93421AD82B6094F8FD
:1004C0002B20E16803FB02136B600020EAE7296838
:1004D000066A01F07F03042200929B0003AA06EB48
:1004E000D111FFF795FF0028E1D0D9E76FF00800A0
:1004F000D8E76FF00600D5E710B404688C420AD044
:10050000074A90F84840016052F824404269234667
:100510005DF8044B184700205DF8044B704700BF9E
:100520002002FF1F38B50C4B0C4D01221A60044607
:10053000022208214D2002F057FF1CB14FF4007336
:100540002B8338BD064801F04FFF4FF480732B8397
:10055000044B1C60F5E700BF3402FF1F8C02FF1F35
:10056000405900003002FF1F084A094808B5138BA4
:1005700043F008031383074B32221A6001F034FF63
:10058000BDE80840044801F02FBF00BF8C02FF1FE8
:10059000595900003402FF1F6859000010B50D4C76
:1005A0000D4B94F84820216853F8223062692046A8
:1005B000984750B9636993F8FE21552A06D193F8FC
:1005C000FF31AA2B18BF6FF0020010BD6FF00200C0
:1005D000FBE700BF8C02FF1F2002FF1F2DE9F7433E
:1005E000204C214F236813F0020F164607D1028BCF
:1005F000520658BF490243F00203236039601B4D85
:10060000DFF86C804FF011093B6818482B711A0E07
:100610006A701A0CAA701A0AEA700DF1070100221A
:1006200085F800906A7103F059FD431CC8F800007A
:10063000EAD0002806DA236823F00203236003B01F
:10064000BDE8F0839DF8073023B9304603F046FE3D
:10065000C8F800002368D8F8000023F002032360E4
:10066000EDE700BF3002FF1F4C02FF1F3802FF1FE3
:100670002C02FF1F2DE9F347224CDFF890801E4625
:10068000236813F0020F174608D1028B520658BF99
:10069000490243F002032360C8F800101A4D4FF0DE
:1006A000110A4FF00009D8F8003017482B711A0EC4
:1006B0006A701A0CAA701A0AEA700DF1070100227A
:1006C00085F800A085F8059003F008FD431CEAD0EA
:1006D000002806DA236823F00203236002B0BDE895
:1006E000F0879DF807303BB9BDF82820324492B21C
:1006F0003146384603F02AFE236823F002032360C4
:100700000020EBE73002FF1F3802FF1F4802FF1FE7
:100710002DE9F04F2DED028B8DB002F400430593CF
:10072000C2F3C033069391F83A300493D0E90067DE
:10073000AB4B8A460499542201FB023304460C2237
:10074000394609A808EE903A01F025FD33785C2B74
:1007500001D02F2B00D101364FF0000B04F11E0306
:100760000B2220211846E66208EE103A01F00AFD3D
:100770000021182384F82930354608460A464FF0F0
:10078000050C16F8013B2E2B00F0A6807FD80A2B13
:1007900000F0A9800D2B00F0A680002B40F05E82B7
:1007A000002A00F09E80B3FA83F35B092E46A36112
:1007B000013300F0F181C4E90C6633785C2B01D081
:1007C0002F2B00D101360023049A01935423534365
:1007D0000793796818EE900AFFF78EFE804600288E
:1007E00040F036827E4B079A3D7A13445B69029350
:1007F0006B010393029B03EB4515019B002B40F01B
:100800007881BBF1000F40F063810C22394604F17E
:10081000380001F0C0FCDDE902329A5C059B002B38
:1008200040F0A980E52A00F04781069BEA7A02F0B1
:100830003F010F2900F0AE800298844603981CF80F
:100840000000002840F0A28008290CBF6FF00409C6
:100850006FF00109082A0BD0626C4AB90122626468
:1008600029460B2204F14800019301F094FC019BFE
:10087000626B2263002B40F02381B9F1FF3F40F00F
:100880001F81DDE90221525C02F03F0BF5E02F2BC6
:1008900086D05C2B84D07E2B52D8524D1D4415F847
:1008A000215C15F0210F24D0D8B1AD0619D5072A47
:1008B00033DD002957D1012142F20140324612F8BE
:1008C000013B2F2B55D050D80D2B50D801FA03F3F4
:1008D00003424CD004236AE7FAB1082AE7DC01217D
:1008E000082235464DE7002A7FF45DAF4FF0FF3315
:1008F0005DE70028DBD1680715D594F8290031B9E8
:1009000020F0080084F82900072A06DDD3E720F04C
:100910001000072A84F8290025DC18EE100A8354F9
:1009200001320020DDE72807C1D5203B94F82900DB
:10093000DBB211B940F00800E4E740F01000E8E74E
:1009400003F17F05EDB21E2D04D903F12005EDB2B0
:100950001C2DC6D8002AAAD1E52BDED1012284F8AD
:100960001EC01046BDE70A2ACFE75C2B01D0164611
:10097000A4E702231BE73AB12A7B2AB9AA7E1AB957
:10098000EA7E32B1019B51E75B464FE76FF0020907
:1009900060E7069BDDE90221505C10F0400C03D0BB
:1009A000626B22634FF0010C4FF00D09B9F10109A0
:1009B00009D26A7BBCF1000F50D194F855109142D6
:1009C0007FF456AF4CE009F1FF320B2A3CD8DFE848
:1009D00002F039373533312F2D2B2927250B00BF56
:1009E0008C02FF1F525A0000AA7F511EC9B2FD2976
:1009F000DCD8216B01F1FF3EC4F830E011F8011C96
:100A00008A42D3D0A2F1410EBEF1190F1ED8203276
:100A1000D2B28A42CAD04FF0FF3929E72A7FE4E7F1
:100A20002A7EE2E7AA7DE0E72A7DDEE7AA7CDCE712
:100A30002A7CDAE7AA7BD8E76A7AD6E7EA79D4E7AC
:100A40006A79D2E7EA78D0E76A78CEE7A2F1610E58
:100A5000BEF1190FDFD82031C9B2DAE784F855208A
:100A600000F03F000128D4E90B211FD191427FF40F
:100A7000FFAE626B2263C3F1010301933B7A794AB3
:100A800007990133DBB20A443B72128DB3EB521F5C
:100A9000FFF49FAE4FF0000318EE900A3B72394608
:100AA000FFF7DAFC00283FF494AE8FE09142FFF4A8
:100AB000DFAE4FF0000BE1E7059B6FF00309D7E6CF
:100AC00019F1030F70D019F1020F60D00023D4E7A1
:100AD000BBF1010BD2D1636C002BEAD1012363641B
:100AE0000B22294604F1480001F055FBCDF804B073
:100AF000C4E7294605F10B00C44611F8012B02EBAF
:100B00005C0202EBCC12814202F0FF0CF5D194F8AA
:100B10005520624548D10122A261A26922F0020259
:100B2000012AABD1DDE902329B5C002B3FD0E52BE3
:100B3000A4D0019AEB7A4AB91B079FD418EE101A79
:100B40000B22284601F069FC002897D12B7D6A7D95
:100B50001B0403EB0263EA7E03EB0223AA7E134429
:100B6000E360CAF80450EA7AD0063BD43D490498C1
:100B7000CAF82C30542202FB00124FF0020892F8FF
:100B80002B10D26803FB0123CAF8303006E033781B
:100B900013B96FF0050801E06FF0020840460DB090
:100BA000BDEC028BBDE8F08F00230193B5E76269CD
:100BB00012070ED5BAF83820AAF8363002F0010232
:100BC000AAF83820DAF800201AB11370A369002BB4
:100BD000E2D0A38B1B07DCD50C2209A9384601F013
:100BE000DAFAD6E7A26912B1A28BD106D6D41D4992
:100BF00004983B60542202FB001292F82B10D2683A
:100C000003FB01237B6002233B7233789BB963694A
:100C1000022B20D01A07C1D50AF114010C220AF1C7
:100C20000800019101F0B7FA01990C220AF12000A5
:100C300001F0B1FAB2E70C22394609A801F0ABFA8B
:100C4000019B2660002B3FF489AD0423A36185E559
:100C50006FF00308A2E74FF003089FE7202B7FF611
:100C600040AE1AE68C02FF1F2DE9F04FAE4D2B6807
:100C7000ADF5057D0446002113F002008DF8071044
:100C800006D0AA48AA4B42691B689847461C6AD0FE
:100C90002B6813F0010640F01983A64F3B68122B16
:100CA00030D8DFE813F0130013003700410057007D
:100CB0007E008C009A00AD00B700D7001101210121
:100CC000060135019A01A401D00168029A4B9B4AA2
:100CD0001A60974B9A4A1A609A4D03F0A9F99A48FC
:100CE0009A499B4A00236B7043704B705370AB70F2
:100CF00083708B7093700223012211464D203B605C
:100D000002F072FBA07B052202A901F007F900287E
:100D1000F8D128E08F4B1A6842F000621A601A6816
:100D20001101FCD40323E7E78B4800220DF10701F2
:100D300003F0D4F940B1013015D000238DF807300D
:100D40000020FFF7EFFBDDE79DF80730012BF7D11F
:100D500004233B60814804AA0DF1070103F0BEF9AA
:100D600028B10130ECD10DF5057DBDE8F08F9DF87F
:100D70000730012B13D19DF81330AA2BE0D19DF839
:100D80001230012B06D105233B6004214D2002F0D7
:100D9000FBFAB7E7724801F027FB0120D1E7714861
:100DA000F9E7694800220DF1070103F097F90028DF
:100DB000D7D19DF80730012BE7D806233B606A485E
:100DC00004AA0DF1070103F089F90028C9D19DF9A2
:100DD0001030002BD7DA07233B60644801F004FB96
:100DE0009DF81030514A13F040031BBF402313837A
:100DF00013835F4808BF5F4801F0F6FA08233B60A1
:100E00005D4804AA0DF1070103F068F90028A8D194
:100E100009233B60594804AA0DF1070103F05EF96C
:100E200000289ED19DF8123003F01F03052B0FD12F
:100E3000444D45484549464A9DF810306B70437013
:100E40004B7053709DF81130AB7083708B70937042
:100E50000A233B603E4804AA0DF1070103F03EF966
:100E600000287FF47EAF314D10220DEB020105F119
:100E7000380001F090F99DF810309DF817009DF8AA
:100E800018209DF8191013F0400F7FD0130203EBC8
:100E900000430B4401339B022B61394801F0A4FA53
:100EA0006B6923B94FF4007002F034F968610D23C7
:100EB0003B60264804AA0DF1070103F00FF9002852
:100EC0007FF44FAF0B233B601F4800220DF1070159
:100ED00003F004F900287FF444AF9DF80730012B9C
:100EE0003FF653AF0C233B60164804AA0DF10701EF
:100EF00003F0F4F800287FF434AF0E234FF4907021
:100F00003B6003F079F81F4A136843F00203136053
:100F10001D4804AA0DF1070103F0E0F8054600287A
:100F200051D001351EE700BF3002FF1F8C02FF1FAA
:100F30002002FF1F3402FF1F2402FF1F750600005E
:100F4000DD050000FF01FF1FF001FF1FF501FF1F7E
:100F5000FA01FF1F2C100B40B05A0000B65A0000D7
:100F6000725900008A590000C15A0000AF590000B0
:100F7000BD590000CD590000BC5A0000CB5A0000FA
:100F8000DE5A000028100B40C65A00009DF81630AB
:100F90009B0203F4406303EB800303EB92134900CD
:100FA0009DF81A2001F0060101EBD2119DF81520E1
:100FB0000133023102F00F028B400A2A2B617FF4C9
:100FC0006CAF5B0068E70F2304214D203B6002F00B
:100FD000DBF9B54B83F8485094E6B34B00221A6016
:100FE000FFF7DCFA421C3FF4BEAE10233B60C31C8B
:100FF00002D1FFF7B9FA85E611233B6000287FF4A0
:101000009FAEA9494A6992F8C2010B46F0B192F825
:10101000520046281AD092F83600462816D092F888
:10102000C83192F8C9011B0403EB006392F8C701B1
:1010300092F8C62103EB002313440B60FFF7AEFACE
:10104000471C3FF490AE0330D3D001E000221A6079
:10105000954A5369D87D997D93F80C9011EB002146
:101060004FEA09290ED193F8261093F827000904B6
:1010700001EB006193F8250001EB002193F82400B7
:10108000012601441F7DD87C10EB07200DD193F879
:10109000220093F82370000400EB076093F821709E
:1010A00000EB072093F820703844D1611F7C82F850
:1010B0002A7093F80DC082F82BC093F80FA093F814
:1010C0000EE0D2F800800EEB0A2E1FFA8EFBB9F567
:1010D000007F18FA8EFEC2F820E007D3BCF1000FA3
:1010E00004D009FB0CFABAF5004F03DD6F4801F09C
:1010F0007BF97EE7B2F818A0A2F828902AF0080A37
:101100001FFA8AFA4F434AF020011183BB444FF67D
:10111000F471A0EB0B00B0FBFCF0884200F2A88059
:10112000002E40F0A5800121516003F1240193F8C5
:101130003A30322B01D15E48D9E74AF4804343F07C
:1011400020031383536850627744976003FB1C7736
:10115000138BD760580444BF1F37D76007310B2269
:10116000544801F018F8544B12221A60FFF716FA8F
:10117000431C3FF4F8AD4C4E00284CD1308B470453
:1011800049D4736993F8FF21AA2A44D193F8FE2128
:10119000552A40D1DA78412A3DD19A78612A3AD14C
:1011A0005A78522A37D11A78522A34D193F8E72143
:1011B000612A30D193F8E621412A2CD193F8E52118
:1011C000722A28D193F8E421722A24D193F8EA21D3
:1011D00093F8EB1193F8EF71120402EB016293F8AC
:1011E000E91102EB012293F8E8110A4493F8EE1199
:1011F0003263090401EB076193F8ED7193F8EC3168
:1012000001EB07210B44023A934298BF40F00400DF
:10121000736398BF3083294801F0E6F8338B284880
:1012200043F080033383274E01F0DEF8338FD80775
:1012300016D596F83A80B8F1000F11D137683C22E4
:101240004146304600F09EFF0123338786F83A80FE
:1012500037B11D493760384601F0EDF80323F386B6
:101260002B6843F001032B60134B13221A6049E5EE
:1012700093F8311093F8306093F82F9006EB012625
:1012800093F82E10090401EB096193F82D9001EBFE
:10129000092193F82C9018FA86F649445160D662D9
:1012A000166003F140014DE78C02FF1FD859000082
:1012B000E5590000D502FF1F3402FF1FF15900005D
:1012C000DE5A00005002FF1F005A0000D9067FF5C9
:1012D00019AD2C492C4ED1E9077230683A4490423E
:1012E0000F4640D2151A0A2DDFF8A890DFF89C802F
:1012F00028BF0A25013DFFF448AD3168D9F8003018
:1013000020484A1C326004AA98470028F2D13A8B40
:10131000D8F80030520415D50DF1100C02465CF8D7
:10132000041B31B90233012201308028F7D1BAB948
:10133000E0E71FFA81FEBEF1000F01D0090CF3D1E6
:101340000133F0E704AA014652F804CB0130BCF1A6
:10135000000F01D1013301218028F5D10029C9D026
:10136000C8F80030C6E723F010032B60074B084D88
:101370001B680B6395F90000BF2101F03BF80023C7
:101380002B70BFE48C02FF1F4402FF1F4002FF1FAF
:101390002802FF1F2002FF1F2DE9F04F8146A1B058
:1013A00059F8043B93F83A20904B8846542102FBAD
:1013B000013A07464A43002000904FF0640B039225
:1013C000CDF814A0B9685046FFF796F804460028F7
:1013D00040F00981059B5A693B7B590102EB43139D
:1013E000515C002940D0E52900F0F580DD7A05F058
:1013F0003F000F285A4643D1002A41D049063BD529
:10140000997F0139C9B2FD299FBF20A90BF1FF3295
:10141000891801F8644C597B00910D2A00F3AE80C5
:10142000002107A800F0AEFE00225FFA82FB002533
:101430003B7B6E4A03990133DBB20A443B73128D46
:10144000B3EB521FC0F0CB8000233B73494650469C
:10145000FFF702F8073040F0C280012D0CBF6FF09B
:101460000F046FF0060403E0DB7A1807DFD40124D1
:10147000204621B0BDE8F08F597B00988142CCD046
:1014800015F0020240F0A78015F00805CFD108F151
:10149000090201921A7B019E591E029102F0080175
:1014A00008F1110C0491029810F8011F02902029F4
:1014B0000FD00498052908BFE52130B1A1F1410EF4
:1014C000BEF1190F9CBF2031C9B206F8011B664559
:1014D000E9D1197A202918D030462E2100F8041BB2
:1014E00003F1080C013602F010011CF8012B202A30
:1014F0000BD031B1A2F1410EBEF1190F9CBF2032C9
:10150000D2B206F8012BB042EFD100223270DA7A63
:1015100088F808209A7FD97F120402EB0162597F74
:1015200002EB0122197F0A44C8F80020597E1A7E76
:1015300002EB0122A8F80420D97D9A7DBBF1640F4B
:1015400002EB0122A8F8062016D003F10B0213F8D3
:10155000011B01EB550101EBC515934205F0FF0599
:10156000F5D1009B9D4236D107AB03EB0B010198EF
:1015700000F061FF4FF0640B012559E720A91144E9
:10158000987F01F8650C187F01F8660C187E01F849
:10159000670C987D01F8680C187D01F8690C987C3F
:1015A00001F86A0C187C01F86B0C987B01F86C0C44
:1015B000587A01F86D0CD87901F86E0C587901F859
:1015C0006F0CD87801F8700C59780D3A20AB1344A1
:1015D00003F8641C29E700254FF0640B28E7002D71
:1015E0003FF4F0AE44E76FF0030441E78C02FF1FC5
:1015F0002DE9F04F0A7D0D6812F0010FA9B04FF0F0
:10160000000314BF2F222C2207460C464B81029266
:10161000CB814FF02009E289A3899A4201D30020AF
:1016200011E007F104080C22414604A800F0B3FDC4
:101630000CA93846FFF7B0FE824638B110F1100F02
:1016400004D06FF00E0029B0BDE8F08F029B6689D0
:101650000DF139001E4400F0F9FE23893044984210
:1016600007DD0C2204A9404600F095FD6FF00D0047
:10167000E9E7BDF83630BDF834600193237D9DF86D
:101680003820627506F01F0BC6F3431813F00103F0
:101690004FEA562606F2BC7600F09880D10634D484
:1016A00012F0010F14BF4FF492734FF4D273691EFE
:1016B00005F10900642281422AD17D4905F10A0021
:1016C00000F0B9FE9DF8381011F01001024632D03A
:1016D0003B68784993F83A30542000FB031300210B
:1016E00093F82B001B8D584300F0DCFCA8F1020896
:1016F00000F8019BB8F10A0F1FD8DFE808F051533A
:101700005557595B5D5F6163650040F2ED33CEE78D
:1017100013F4007F14BF94464FF02D0C722A01F889
:1017200001CF06D0772A14BF722278225B009BB2C9
:10173000C1E77722FAE70C98D6E75F4900F07BFE15
:1017400060210246584600F0ADFC2021024630469A
:1017500000F0A8FC05462E460DF1390106F8019B64
:10176000304600F068FE237D861B1A070546A675E5
:1017700006D403460D2203F8022B0A2242701D46AE
:101780002368EB1A6381E3890133E381237D1B071F
:1017900044BF00232B701AF1100F7FF43CAF50E7C9
:1017A0004649CBE74649C9E74649C7E74649C5E741
:1017B0004649C3E74649C1E74649BFE74649BDE751
:1017C0004649BBE74649B9E74649B7E712F0010F7A
:1017D0000CBF2D2252222A709DF83820039312F05C
:1017E000020F0CBF2D2248226A709DF8382012F09B
:1017F000040F0CBF2D225322AA709DF8382012F03E
:10180000200F0CBF2D224122EA7060212A1D58466C
:1018100000F048FC02462E2502F8015B40214046BC
:1018200000F040FC039B0246194602F8015B30467B
:1018300000F038FC019B0246602102F8019BD80AA7
:1018400000F030FC02463A2302F8013B019B4021A4
:10185000C3F3451000F026FC9DF83830DE0605463F
:101860000AD5237DD90703D41F4900F0E4FD0546BE
:10187000238A013323826EE707AE0C98324620217B
:1018800000F010FC801BC0F11100284485420CD1EF
:101890002846314600F0CFFD638A0C9A01336382FB
:1018A000636813440546636055E705F8019BEDE75F
:1018B000045A00008C02FF1F105A0000145A000046
:1018C000185A00001C5A0000205A0000245A000038
:1018D000285A00002C5A0000305A0000345A0000E8
:1018E000385A00003C5A0000405A000038B50A4CF3
:1018F000238F0D4673B90123238784F83A0039B149
:10190000C81880B201F006FC20600348A58638BDE7
:101910002160FAE70020FAE75002FF1F30B597B0C8
:1019200005460C4658220021684600F02BFC224652
:101930002946684600F00AF8049B23B1002221469C
:101940006846FEF7E5FE17B030BD00002DE9F7430D
:101950008B4F144692F83A200E46542101FB027137
:101960000546088B030640F1068100236B617EB1BA
:10197000B4F8369031782E2909D171782E2906D104
:10198000216809BB268F46F0400626870E467BBBA2
:10199000218F2E6021F4FC73A9832387002E00F091
:1019A000818033780D2B77D95C2B01D02F2B7BD105
:1019B00041F02001A983737823B15C2B02D02F2B37
:1019C00040F0B18004236EE0B9F1030F2CD91BB1B4
:1019D00009F1FF391FFA89F911F809C0BCF15C0F50
:1019E00002D0BCF12F0FF3D1B1780133F9B902362F
:1019F000238FB9F1030F43F040012187A9833CD91C
:101A000023684FF0000813F8097003F80980238F4A
:101A1000206823F01003238721460330FFF77EFF61
:101A200038B1236803F809706FF002001DE0033637
:101A3000A0E73278AB8BDAB123F0C00343F0800328
:101A4000238721463046FFF769FF28B1A5F81C809F
:101A5000236803F8097008E0AB8BD905F8D5206836
:101A6000711E484400F0E7FC052003B0BDE8F08398
:101A7000DA05EDD5A4F83690F6E7DB0588D52368BE
:101A80000022DA700323E3860C2204F1080104F13A
:101A9000200000F080FBE7E742F2014121FA03F366
:101AA000DE0701D501236B61AB8B13F0020F04F14C
:101AB00020062BD1542303FB0273596893F82B2083
:101AC000E9600129DB6861612FD840042DD51F3BF7
:101AD0001344A3610023237704F114010C2204F1C1
:101AE0000800019100F057FB01990C22304600F0EC
:101AF00052FB072323876B69206843F008036B615F
:101B000020B1204900F097FC0323E386AB8B13F050
:101B1000E40F28D05A060BD50C2204F108013046F8
:101B200000F039FB14E00223BDE702FB0133D0E7EC
:101B30001B060DD46B6913F0060F4FF00C020FD08B
:101B400004F10801304600F026FB686904288CD0B7
:101B50006E60686910F0050010D101232B6184E7E5
:101B600004F11401DBE704F1140169600C22304632
:101B700000F011FBEDE76FF0010076E7002074E75D
:101B80008C02FF1F005A00002DE9F7430023038653
:101B9000436890F83680DB0704460F4615464AD561
:101BA000D0E902329B1A03D1002003B0BDE8F083D4
:101BB0009D4288BF9DB2214B542208FB0239C84682
:101BC000002DF1D0E368E16AC3F30803C3F50076A2
:101BD000B6B2AE4228BF2E4613B9B6F5007F21D06B
:101BE00000963A464846FEF713FCC0B9E368228ED9
:101BF000B8F8281033443244AD1BE3602286B3FBAF
:101C0000F1F201FB1233ADB23744002BD8D104F10D
:101C100028014846FEF720FC0028D1D0C5E76FF028
:101C20000300C2E794F83620054B484653F82230AB
:101C30003A469847D9E76FF00800B6E78C02FF1FD5
:101C40002002FF1F38B50C46096861B1FFF766FE38
:101C5000051E06DB20460C2250F8041B203100F044
:101C60009AFA284638BD6FF01005FAE770B50646B7
:101C700096B00C461D460A60002A78D092F83A3099
:101C80003E4A542101FB03231B8BD90602D515F0D4
:101C9000260F6FD158220021684600F073FA23689E
:101CA0001A8F15F0200F14BF42F01C0242F00C02F4
:101CB0001A87314622686846FFF748FE049B0646AD
:101CC000002B3FD021682A466846FEF721FD0228F6
:101CD00006463AD120460C2250F8141B203100F061
:101CE0005AFA2046082250F8201B2C3100F053FAF3
:101CF0002046082250F8281B2C3100F04CFA2168AD
:101D00004B68DA7AD20748BF25F0060565609A7FEE
:101D1000D87F120402EB0062587F02EB0022187F8A
:101D20000244A2600022E26091F83A2084F8362052
:101D3000597C1A7C42EA01226286DA7B9B7B43EA69
:101D40000223A386304616B070BD0028FAD1204683
:101D50000C2250F8141B203100F01DFA45F08005CC
:101D60002368656093F83A3084F83630EAE76FF01C
:101D70000B06E7E76FF01206E4E700BF8C02FF1FD7
:101D80002DE9F047012AC36886B004460D4625D0E8
:101D9000022A30D0002A18BF00259D421CD094F89A
:101DA00036602FD2082204F1200104F1280000F04F
:101DB000F2F90023E3603F4BE768542206FB023947
:101DC0004E46B9F828A0CAF1000808EA070705EA54
:101DD0000808B8451BD8E560002067E0002904DA50
:101DE0004A429A420CD81D44D7E78268D21A9142DF
:101DF00028BF1546F7E782688A4201D9551ACCE711
:101E00000025CAE7A3689D4228BF1D46D3E7E36AC1
:101E1000B26896F82B100133E3629B1AB3FBF1F220
:101E200001FB12333BBB328B316AA36A520424D5C7
:101E300001EB132148460391FEF75EFB002830D1E9
:101E400094F828300399022200925B000DF11202EF
:101E50004846FEF7DDFA20BBBDF812300593A26AB2
:101E6000736A9A4220D8059A96F82B30F168A262DC
:101E700002FB0313E3625744ABE701EBD31148467F
:101E80000391FEF739FB60B9A36A0399042203F0BA
:101E90007F0300929B0005AA4846FEF7B9FA002886
:101EA000DDD06FF0030001E06FF0060006B0BDE882
:101EB000F08700BF8C02FF1F024B542200FB023050
:101EC000704700BF8C02FF1F08B5054B187000EB70
:101ED0008000800001F01EF9024B186008BD00BFB1
:101EE000E002FF1FE402FF1FFF2837B50C46114632
:101EF0000FD0094B0138C2B21B6802EB820003EB22
:101F00008003187C00925D6822460223A84703B034
:101F100030BD0020FBE700BFE402FF1F074B13B5F5
:101F200001381B68C4B204EB840003EB8003187C07
:101F300000945C680423A04702B010BDE402FF1FB8
:101F4000084B13B501381B68C2B202EB820003EBE9
:101F50008003187C009200225C6811460523A0478C
:101F600002B010BDE402FF1F084B13B501381B6817
:101F70000A46C1B201EB810003EB8003187C00919B
:101F80005C6800210623A04702B010BDE402FF1FD9
:101F900070B50B4B1A680B4B1D780024E3B29D42C1
:101FA00001D8002007E05668864205D1167C8E4293
:101FB00002D1581CC0B270BD14320134EEE700BF2C
:101FC000E402FF1FE002FF1F2DE9F84F8146104693
:101FD000884617469A46FFF7DBFF014618B10025F1
:101FE0002846BDE8F88FFFF7D3FF05460028F6D056
:101FF0001C4A14266FF0130316FB003316681E44A8
:10200000B9F800309BB1504601F084F80446B06046
:1020100068B1B9F800B0584601F07CF80028DED06D
:10202000C4E90000A0605844E060A4F816B0B9F814
:1020300002309BB1504601F06DF80446F06068B183
:10204000B9F80290484601F065F80028C7D0C4E905
:102050000000A0604844E060A4F81690776086F81D
:102060001080BDE7E402FF1F032807B505D005284F
:1020700011D0002003B05DF804FB1389ADF80430E3
:102080001168074A0023ADF806300978182301A823
:10209000FFF79AFFEEE7104600F038FCEAE700BFD2
:1020A0001D2200002DE9F0478F0642BF202301F0DA
:1020B000F70102F8013B4E0705D50028BEBF2D23CE
:1020C00002F8013B40422E4C00254FF00A0C01F073
:1020D000400E01F008084FF0200928B3302303E038
:1020E000BDB1137032463C46844202F10106B4FB96
:1020F000FCF7F5D8B0FBF4F3002C03F1300ADBB2A7
:1021000082F800A004FB130018BF012532463C46AC
:10211000E3E7012FE7D1BEF1000FE2D1B8F1000FE4
:10212000E1D082F80090DDE70A23302610466CB13A
:102130003DB90D0702F1010319D520201070184692
:1021400006E002F8016BB4FBF3F4EFE7002DF0D0EA
:102150000B0606D503460D2203F8022B0A22427015
:10216000184611F0100108BF0170BDE8F0874C0659
:1021700042BF302010701846302300F8013BE7E7DB
:1021800000CA9A3BC9B202440346934200D1704749
:1021900003F8011BF9E710B5431E0A44914200D130
:1021A00010BD11F8014B03F8014FF7E72DE9F84393
:1021B000058A954228BF154604460F460DB3D0F850
:1021C0000480C66808EB0503B34243601ED3A6EB48
:1021D00008060368B6B2A5EB06094B44436001F05C
:1021E00093F94FB1324641463846FFF7D4FF216894
:1021F0004A46B819FFF7CFFF01F07EF9238A5B1B2F
:10220000238201F081F92846BDE8F88301F07CF9CA
:10221000002FF1D02A4641463846EBE72DE9F3413D
:102220001A4F01911D469DF8203016463A6803EB7F
:1022300083034FEA830802EB83039C6801F05CF997
:10224000052D0BD0062D12D0042D019908D00025A4
:1022500001F05AF9284602B0BDE8F081258AF7E777
:102260003246204602B0BDE8F041FFF79FBF012E85
:1022700002BF3B684344DC6834B12368258AC4E963
:10228000013300232382E3E72546E1E7E402FF1F51
:102290002DE9F041044616460F4601F02DF9638AF8
:1022A000228AE18AD4F808801A4490198842C4BF6F
:1022B0008A1A96B233446382E36808EB06059D42AE
:1022C00028BF2368A56021BF6D1AA560ED1A751B94
:1022D0002CBFADB2354601F017F92A4639464046C3
:1022E000FFF759FFAE4204D02068721B7919FFF73F
:1022F00052FF01F001F9628AA18AB2420BD1238A0E
:102300000B44334423820023A382638201F0FCF850
:102310003046BDE8F0817318921BA3826282F5E714
:1023200073B50A46437801789942054624D18678E8
:10233000124801923146FFF72BFE044680B16FF040
:102340001303142010FB04300D4B019A1C68EB782A
:102350000444032BA06806D1C48A008A241AA4B2BC
:10236000204602B070BD2946FFF792FF04210446C3
:1023700070B201F009F8F3E70024F1E71D22000034
:10238000E402FF1F034613B508462BB9114602B0FD
:10239000BDE81040FFF7C4BFFF2B0ED00848013B3B
:1023A0000068DCB204EB840300EB8303187C009428
:1023B0005C680323A04702B010BD0020FBE700BF0C
:1023C000E402FF1F034630B4084600245D1EA2B29B
:1023D0000134295D0029FAD11AB130BC1946FFF742
:1023E000D1BF104630BC7047014B1978FFF7EABFE8
:1023F0000402FF1F07B568B10023ADF800308DF867
:10240000020001238DF80410684605218DF8033081
:10241000FFF786FF03B05DF804FB10B5024490425D
:1024200001D1002010BD10F8014B11F8013B9C4276
:10243000F5D00120F6E70139034611F8012F1846BF
:1024400003F8012B0A78002AF7D1704703460246A9
:10245000D01A12F8011B0029FAD1704740B18369E4
:1024600093F82820501C83F8280003EB4203D983FB
:102470007047022900F1020106D0037813804078EA
:1024800043EA002322F8023B0B781380497843EAA1
:1024900001231380704700002DE9F8439846344B20
:1024A0001B682C2404FB08340746638B002B5CD18B
:1024B000258BA2838A4228BF0A469542628328BFA1
:1024C00015461646089AE582D368DFF8A89018608A
:1024D000D2E901035A6809EA05410A4342F0800241
:1024E00002605A68E06882F040025A609A6882F09E
:1024F00040029A602946FFF7B1FF6760628BE38A6A
:102500009A4206D9E3683BB19B6993F82830012BC6
:1025100002D9608BBDE8F88308A9404601F002FBB0
:102520000028F6D1089BDA682F44761B258B1760AC
:10253000D3E90102B6B2B542536828BF354609EA6D
:102540000541194341F0800101605368E06883F060
:1025500040035360936883F0400393602946FFF77C
:102560007DFFE38A2B44E382C8E70020D2E700BF67
:10257000F002FF1F0000FF032DE9F34707460DF1AE
:102580000600884691461D46002403F05DF94FF091
:10259000010C90F800E0BDF80630A3EB0E039BB2EF
:1025A000ADF806304278042A16D0052A26D0022A31
:1025B00007D14279BA4241D0B7FA87F46409002FB3
:1025C0003CD07044002BE4D1BCF1000F0CBF284676
:1025D000002002B0BDE8F087002CF2D0B8F1FF0F68
:1025E00002D082784245ECD1B9F1FF0F02D0C27817
:1025F0004A4527D1002DECD00224E2E7002CE0D0A0
:10260000002DDED02E4612E0817892F802A081EAF9
:102610000A0149060AD1022CD3D05179127942EA33
:102620000122B1889142CCD2B280CAE70836326822
:10263000002AE9D1022CC4D13060C2E701244FF056
:10264000000CBEE70324BCE737B5836993F9243057
:102650000446ABB1028A8A4212D800258DF80230B6
:1026600001238DF803300522DD23694628468DF8C5
:102670000430ADF80050FFF785FEA36983F82450BD
:1026800003B030BDB3B5114A04468078126894F89F
:1026900005C0E7780B462C2500F07F0101FB0525DE
:1026A0002279009520F07F0042EA0C22384301F0A5
:1026B0006FFAE3783BB195F8223043F0010385F8D7
:1026C000263002B0B0BD1123F9E700BFF002FF1FB2
:1026D000114B73B51B6800F07F012C2401FB0434FF
:1026E0000025E66800952B462A46FF2001F050FAA7
:1026F00084F82650658384F828501EB133683582EB
:10270000C6E90133A36823B100221A821A68C3E91B
:10271000012202B070BD00BFF002FF1F30B58DB0C6
:102720000C46154604A905AA0390049201F0FAF993
:10273000039BA8B9A16991F8262042F0400281F8D4
:1027400026206068E168091A89B2A9420A460499FC
:10275000009128BF2A461146FFF79EFE0DB030BDFE
:102760000020FBE72DE9F0418AB01F469DF840406C
:1027700080460E46154600F0BFFEBB1E042B00F23D
:10278000BF80DFE803F003458A3CAD005D4B1B686A
:1027900004EB840403EB840315F00404D9680DD022
:1027A0008B6993F826305B0600F1AA800B68CA8A11
:1027B0004B600A824046FFF7B1FF4AE02F070CD575
:1027C0008A6992F8263023F0400382F8263000F020
:1027D0009BFE20460AB0BDE8F08116F4805F9B683E
:1027E00018BF0B466C069B6993F8260005D5C107F8
:1027F00003D506F07F0683F8246084B2E7E7414BF7
:102800001B6804EB840403EB8404A3681C8ADEE7E2
:102810003C4B1B6804EB840403EB8404E768E7B9D2
:1028200003AB02A94046029301F07CF9002867D16E
:10283000B8F1000F0FD1344B1B6863B1D9799A7985
:1028400042EA0122029B0093294643463046FFF7A5
:1028500023FE0446BBE72A46F4E7BB6993F826400B
:1028600014F00100F5D036B9F88A3C8A001BA84262
:10287000C3DA3446ABE700F047FE2A463146384615
:10288000FFF706FD044600F037FEBB6993F82630DB
:102890005A069CD4224639468CE71A4B1B6804EB37
:1028A000840403EB84042A46A76831463846FFF7C0
:1028B0007DFCBB6993F826305B07044689D500F0A0
:1028C0001BFEBA6992F8263023F0040382F8263002
:1028D000BB6993F8250001F003FA0028F8D076E7E9
:1028E000084B1B6804EB840403EB8404D4E9023234
:1028F000002D18BF134600201A681882C3E9012270
:10290000002464E7E402FF1FE802FF1F2DE9F04105
:10291000334E817B334A346805461C230430FFF76D
:1029200053FB95F80E800746B8F1000F43D02C20DA
:1029300008FB0044AB8923836B89D90644BF20225E
:1029400062845A0642BF628C42F0800262841B0697
:1029500003D5638C43F04003638414236FF01302A8
:1029600013FB0722204B1B681344DA68E26012B1A4
:1029700094612A89A282AA7B84F825207AB1E97B16
:1029800069B13068B4F822C02C2401FB040484F837
:10299000251084F82720AA892283A4F822C09B68E6
:1029A000A3601BB19C61AB7C84F824302B6823604E
:1029B0003846BDE8F0816B7C013303EB830003EB09
:1029C0004000800000F0A6FB08230383AB7C30604E
:1029D000044680F824302946404601F0BFF9BCE7A0
:1029E000F002FF1F65270000E402FF1F2DE9F843F6
:1029F00016462A4ADDF820E0D2F800C02C225043C7
:102A00000CEB00050F466A8C120619D5AC68B5F8B8
:102A10001890A168D4F80C80A38A49444145A1606C
:102A200023BF00222168A1605A1CA282BEF1000FC0
:102A300006D0A2684A44904598BF2268CEF800208C
:102A40005CF800401CB9AB684BB9002005E01A46A1
:102A500031463846A0470728F5D0BDE8F88395F9F8
:102A6000240010B1042100F08FFC6B8C1B06ECD409
:102A700095F8263013F004040ED1A868C28A018AA2
:102A8000521AB24204DB32463946FFF701FCDCE75A
:102A900043F0040385F826300120DEE7F002FF1F33
:102AA0002DE9F041A0B00D46802200210446684681
:102AB000FFF768FB6B460022FF212846FFF75CFD0D
:102AC00050B3164EE8462C27D8F8000010B920B0B5
:102AD000BDE8F0815CB92DB98078FFF7F9FD08F108
:102AE0000808F1E7B8F80410FFF7CCFDF7E78278A3
:102AF000336802F07F0202FB0732012C92F8263085
:102B00000BBF23F0010323F0020343F0020343F061
:102B1000010382F82630E2E70120D8E7F002FF1F28
:102B20002DE9F0430446A7B00D4610461E46062C7C
:102B30002BD8DFE814F023018B02830207009002F8
:102B40009E02A6029F4B1B682C2707FB0237798B3E
:102B5000FD6839BBCDB12C8AE4B16A68EB689A4252
:102B600022BFE98A521A6A606F680096DB1B9AB22C
:102B7000A24228BF2246034611463846FFF78CFC86
:102B8000AB692846998AFFF75FFD0024204627B0ED
:102B9000BDE8F083AA6992F8263023F0400382F85A
:102BA0002630F3E7FB8A994200F2AF80002D00F057
:102BB0008C802B8A002B00F08880D5F818C0BCF8D8
:102BC0001E209CF828409B1A012C04F1FF3484BF7E
:102BD000BCF820E0ACF81EE0E4B21FFA83F98CF8F0
:102BE00028400022A5F810900CF11E08002C38D1C6
:102BF00091454CD1002A3AD197F8263013F0300F86
:102C000015D0388BB1FBF0F300FB13139BB273B9F3
:102C1000D6E901035A6842F0880202605A6882F0DD
:102C200040025A609A6882F040029A6001226B6802
:102C30001944EB686960994224BFEB8AC91A4FF0C6
:102C4000000328BF69607B832AB99CF8263023F0F3
:102C500040038CF82630AB692846998AFFF7F4FCCC
:102C600094E7013C38F814E0724492B2BEE7BCF835
:102C700022205206EFD5EA8A7C8309EB02032B82DD
:102C80000096034668681146FFF706FCE3E76B68A9
:102C9000D5F80CE01944714528BFB5F816C0696035
:102CA00024BFA1EB0C016960D5F804C0AEEB0C01A8
:102CB000A9EB02038AB29342B8BF9AB200237B8386
:102CC0001146034600966046DEE73A8BB1FBF2F30D
:102CD00002FB13139BB2A3B9BB8B8B4203D197F8B2
:102CE00026309B060DD5D6E901135A6842F08802BA
:102CF0000A605A6882F040025A609A6882F0400284
:102D00009A6000207883044640E73C8BCA1A93B24D
:102D10009C4228BF1C4695B1AB6993F82820D98BFB
:102D2000012A02F1FF3283F828202A8A84BF188CF6
:102D3000D883521A2A82998A2846FFF785FCF98A95
:102D40007B68F2680B441360D6E901121E4B506891
:102D500003EA0443034343F080030B60536883F0AA
:102D600040035360936883F04003936021462846F4
:102D7000FFF774FBFB8A2344FB8206E70A78114BBA
:102D800022F080041F684FF00009012CA7F81A9068
:102D9000984600F08C80022C00F0FA80002C40F065
:102DA0003C814B78092B00F2EB80DFE813F07A00CE
:102DB000E900E900E900E90048000F00E9007400BB
:102DC0004C0000BFF002FF1F0000FF03CA788B78A1
:102DD000C97943EA022318B2AA7903F47F43B3F511
:102DE000007F42EA012211D0B3F5407F13D0B3F542
:102DF000807F1CD106A8039202F020FD039A009662
:102E00000023BDF81810FFF747FBBFE606A80392A2
:102E100002F01AFDF2E706A9C0B2039202F022FD09
:102E2000039A08B90424B1E600960023E9E73B6859
:102E3000002BF7D0B18A0022681C984763E78B7893
:102E4000B3750324A2E6914E897831700020FFF714
:102E500027FE044610B100233370E3E7D8F80030B2
:102E600093F92460002EECD0A91C01220DF11E0064
:102E7000FFF791F975238DF81B3007224FF6026397
:102E800006A92046ADF818408DF81A60ADF81C3040
:102E9000FFF778FAD5E701227C4800960023114617
:102EA000B1E702227A48009600231146ABE791F879
:102EB0000180B8F10A0F01F1020046D0B8F10B0F02
:102EC0000CD0B8F1000F5BD1704B1B78002BA9D050
:102ED0000096434602226F4811464EE06B4C237821
:102EE000002B9FD005AA0321FFF7C3FA9DF81650C7
:102EF0008022494606A8FFF745F92946207806AB07
:102F0000FF22FFF739FB06AD55F8081BC9B99DF83C
:102F100016509DF81460802206A8FFF733F9207838
:102F200006AB32462946FFF727FB00283FF47AAF6D
:102F300006AC54F8080B002883D00021FFF7A2FB51
:102F4000F7E78878FFF7C4FBDEE7504D2B78002BBE
:102F50003FF468AF06AA0221FFF78BFA9DF818101C
:102F600028784B462246FFF707FB00283FF45AAF6C
:102F700000964B46224621460330FFF78DFA04E6C1
:102F80003B68002B3FF44EAFB18A0022284654E73D
:102F900091F80190B9F1010F38D8A81C06AA214672
:102FA000FFF767FA394BBDF818001B7813B90028F2
:102FB0007FF438AF2C2300F01F0203FB0272B9F13B
:102FC000010F92F8261001F0080316D1002B3FF4F0
:102FD000DCAD21F0080182F826103B68002B3FF49D
:102FE000D4ADC0B28DF8140000F06EFDD8F80030FA
:102FF00004221B68002105A81FE70096002B3FF460
:1030000069AF0222244800231146B6E73B68002B33
:103010003FF408AF03220821B8E73B68002B3FF4D8
:1030200001AF1E4F12F0800F18BF39600022B18A25
:1030300028469847002304463B60A7E5B28A2AB990
:10304000009202232946FFF7D1FC5CE63369009326
:10305000B28A0123F6E7B37D33B1114B1B68CC2153
:1030600093F92400FFF7C6F900210846FFF718FD81
:103070008BE50B4B1B68CB2193F92400FFF7BAF9C2
:1030800083E5074BCA211B68F6E700BFEC02FF1F70
:10309000EE02FF1FD25A0000D05A0000E802FF1FC4
:1030A000F002FF1F054B1B682C2202FB003090F83A
:1030B0002630194380F82610704700BFF002FF1F2A
:1030C000034B1B682C2202FB003090F8270070474E
:1030D000F002FF1F00F0DEBC10B50A4B00221A8080
:1030E000094B0A4A19600A4B147819600278A24207
:1030F00003D142881144196010BD002AFCD004306D
:10310000F4E700BFF402FF1FF802FF1F0502FF1FD4
:10311000FC02FF1FF8B50E4F0E4E3C6831880E4A78
:103120000C44A3071CBF24F00304043412682318C2
:103130009A4205460AD9024600212046FFF722F8A6
:103140003A68A21A154435802046F8BD0024FBE7F2
:10315000F802FF1FF402FF1FFC02FF1FF8B50F4F1C
:103160000F4E3C6833880F4A1C444B1E1C421EBF46
:103170004B421C406418126823189A4205460AD92B
:10318000024600212046FEF7FDFF3A68A21A1544C8
:1031900035802046F8BD0024FBE700BFF802FF1F82
:1031A000F402FF1FFC02FF1F2DE9F74F584B594F48
:1031B0000197904600221A603A60574A92F900201F
:1031C0008246994691F90040F4B1A24248D10D4699
:1031D0006C1A15F9016FE4B2002EF9D104EB8400EA
:1031E00080000430FFF796FF019B6FEA040CAC44AB
:1031F0001860024635461CF901BFBBF1000F2DD106
:10320000C2F800B0002832D1444B00221A6000F00E
:1032100025FC204603B0BDE8F08F1031D1F800E066
:10322000BEF1000FE7D09EF800305B45F5D14B684A
:10323000C2E900E30B8913810BB10136F6B2B1F894
:103240000AE08B899381A2F80AE05EEA0303897B96
:10325000D1731CBF0135EDB21432CCE75146DDE726
:103260000B4611F9010F0028FAD1991CAAE7EDB11C
:1032700005EB45008000043080B2FFF74BFF019B57
:10328000C9F800001A685946DC464FF0010E4FF6A7
:10329000FF7A136813BB09B1C9F80000D9F80030F0
:1032A00005EB4505A3EB8505C9F8005006EB0800C2
:1032B000C0B2FEF709FE002EA6D0019B1D68FF26B6
:1032C0002B68002BA0D02B8933B12A460121032083
:1032D000FEF7CAFEC8B1A8731435F1E753893BB1B4
:1032E000534508BFA2F80AC053894360012302E096
:1032F0009389002BF9D147680FB180F809E013B129
:1033000040F80C2B01211432C3E7AE73E4E700BF91
:103310000403FF1F0003FF1F0502FF1F0803FF1F19
:10332000184B37B51C68002523680BB903B030BDB6
:10333000E37B13F00D0F22D000F0DEF8A38913B960
:10334000E37BDB0716D4237C7BB1ADF80050226809
:1033500012788DF802206946052200208DF803506E
:103360008DF80430FFF70EF82574E37B13F00A03A1
:1033700008BFE37300F0C8F8636820469847143428
:10338000D2E700BF0003FF1F38B5144B1C68236849
:103390000BB31B7883421FD1C1B9114B1D6815B9FE
:1033A000E17318E00C352B68002BF9D0A342F9D15A
:1033B00000F0A2F8A3891BB10A4A126813446B609B
:1033C0000023E373BDE8384000F09EB84A07E7D514
:1033D000E37B1B07E4D538BD1434D8E70003FF1F97
:1033E0000403FF1F0803FF1FF8B5174B1C680E46A8
:1033F000174644B1154B1D682B6823B11B788342D7
:103400001FD1236803B9F8BDAB4218D100F074F89E
:10341000EB7B23F00203EB73277237B9AE8126B939
:103420006672BDE8F84000F06FB8094B19680123D7
:10343000012E2CBF8E194E1C66606372F1E70C34AE
:10344000DFE71435D8E700BF0403FF1F0003FF1FA9
:103450000803FF1F154A164B11681B68013130B570
:103460001160114623B10C33042553F80C2C02B91A
:1034700030BD13F8030C98B153F8080C0C68A04247
:103480000ED1D47B14F0020F05D1240758BFD57399
:1034900013F8044C1474928922B1024443F8082CA6
:1034A0000C33E2E703F8032CFAE700BF0803FF1F21
:1034B0000403FF1F704700000C490D4A0B68136896
:1034C00070B501280B4D38BF01200C46772B0BD966
:1034D000783B16689E4204D92668F603F9D52B6816
:1034E0000E680138F2D170BD0023F2E710E000E071
:1034F00018E000E014E000E072B6024A13680133FD
:10350000136070472403FF1F034A1368013B1360D5
:1035100003B962B6704700BF2403FF1F08B5064B0E
:103520004FF000721A60FFF7E7FFFFF793FFBDE867
:103530000840FFF7E9BF00BF04ED00E0F8B504461E
:1035400025480368154653B9244E254A1E2336F8EC
:10355000027B22F8027B013BF9D1224B0360224B14
:103560001A781206FCD51A7812F0700F1CBF702260
:103570001A701E4B092C1C7003D0462C01D0072C4E
:1035800012D11B4B0A0C1A70072C4FEA112203F8B8
:10359000012C03F8021C18D12B46164A53F8041BC1
:1035A0001160696851601D46FFF7A6FF03680E4869
:1035B0009847FFF7A9FF462C02BF0E4B1B682B60F4
:1035C000094B187800F03100F8BD462C02BF094BBA
:1035D0002A681A60E8E700BF1803FF1F0602FF1FF2
:1035E0004003FF1F4103FF1F00000240070002408D
:1035F00006000240080002402DE9F8431746384A09
:10360000384C1E46054613684FF00C0808FB05F8B9
:103610004344A3609B6813F0400F0BBF06F11003F7
:1036200006F11803636063600CBF06F1140306F132
:103630001C0308469146E360FFF75EFF294B79685B
:103640002A46FFF76DFA032807D004281BD001286B
:1036500021D1FFF759FFBDE8F883D4E901135A6877
:1036600042F080020A605A6882F040025A609A680A
:1036700082F040029A603B6843F080033B60FFF7B2
:1036800043FF0020E7E7DDB984233361B3610821FC
:103690002846FFF707FDD9F8001001EB08039A68E8
:1036A000114B1340226813432360ADB9DA0013D5E0
:1036B00083F0400242F080023A6041F80830DEE7D1
:1036C0002846FFF7FDFC094B1B6803EB40138422DF
:1036D0001A619A610821DCE743F08002ECE700BF41
:1036E0007C03FF1F8003FF1F0800FF032803FF1F49
:1036F0002DE9F74FDFF80CA3B54E57469AF8004076
:1037000033781C4002D103B0BDE8F08F34F00808D4
:1037100000F08E80FFF7F0FEE2074BD533238AF8E6
:103720000030AC4BDFF8E0921A7842F002021A70D7
:10373000327802F0CF023270A74A1268916821F005
:1037400040019160802111601A78A44902F0FD02C5
:103750001A70A34A00231370012289F80020A14A9D
:103760001370137113710B700B710B720B730B745D
:103770000B750B760B77137182F8303082F834308A
:1037800082F838304B461D7815F00405FBD1964B76
:10379000964A1B68DFF860B29A6040321A60294688
:1037A0005B462A460420FFF7BBF90D238BF8165021
:1037B00089F80030A30719D58D4B1A78D50641BF7B
:1037C0008C498A6801328A601A78500741BF89495A
:1037D0004A6801324A601A78910741BF85490A68F0
:1037E00001320A6016221A7002233B70E2060BD5E2
:1037F00030233B70337843F02003337000231A46A4
:1038000019460520FFF78CF9A3060BD530233B7032
:10381000337803F0DF03337000231A46194606207D
:10382000FFF77EF95FFA88F8FFF76EFE87F80080F1
:1038300025077FF563AFDFF8D4E16B4B9EF80040BE
:103840009EF80020D3F800C0DFF888816A4D200977
:1038500012F0080F01460CEB401327D098F8002017
:1038600014071ED45C4A126800EB400402EB840487
:10387000AC60A268510614D403F110026A601433DC
:10388000EB60FFF739FE5C4B024600210320FFF797
:1038900047F9FFF739FE524BAA7D1A7008233B7097
:1038A0002CE703F118026A601C33E9E72A6802F08A
:1038B00080542C609EF8002052071DD598F800E037
:1038C0001EF0080F03F1080202D144F040042C60FE
:1038D000141D2C611468C4F3094E04F03C04042C3C
:1038E000A5F814E00CD0342C34D084221A619A61EB
:1038F0000821FFF7D7FBD1E798F800401A46E7E721
:10390000DFF8D480D8F8004001EB410504EB850CCA
:10391000DCF808C01CF0080FDFF8ECC018BF54F842
:1039200025401CF8211014BF04F080048024C9062F
:103930004CBF01210221FFF75FFED8F8002052F8AA
:10394000253024B123F0800342F82530A6E743F068
:103950008003F9E701EB4101DFF87C90019100243D
:103960001C619C61D9F80010019C01EB840E234975
:10397000DEF8084021402C6814F0400408BFCCF861
:10398000001041F0C00B17BFCCF8081021461C49AD
:10399000CCF800B029604FF0480108BFCCF808B05F
:1039A000CEF804100021FFF727FE012809D0D9F82E
:1039B0000020019B019952F8233043F0800342F824
:1039C000213098F8003003F0DF0388F8003065E715
:1039D00084200740942007407C03FF1FD02007402D
:1039E00098200740C42007402803FF1F88000800D4
:1039F000882007400C03FF1F8003FF1F0800FF0300
:103A00004000001080200740C02007409020074061
:103A1000114B1B684033090143F8202000F160433B
:103A200003F564430028C9B219700346B8BF00F11A
:103A30001F035B1142424FEA830302F01F0203F1AE
:103A4000604300F01F0003F5614358BF504201225C
:103A500002FA00F01860704708ED00E0084B094AD0
:103A6000DA63094A094B13605360D2F80C3D43F006
:103A70007043C2F80C3D064B07221A60704700BF26
:103A80000000FF1F1D35000014E000E07F8D5B008B
:103A900010E000E008B5094B1B88DB070AD5FFF7EB
:103AA0002BFD074B4AF202621A804BF280421A80C9
:103AB000FFF72AFD034B20221A6008BD00200540B5
:103AC0000C2005408CF00F40134B196820F0800348
:103AD000000610B501EB43124FEA431413D50F490A
:103AE0000F4C08680C2101FB0301486820F04000DE
:103AF000486000211161916114F8232022F0020234
:103B000004F8232010BD0B5923F004030B519368D4
:103B100023F004039360F5E72803FF1F7C03FF1FD6
:103B2000C020074038B5174B13F820305A0727D567
:103B3000154B1C68154B1B680C2204EB401402FB50
:103B400000300B689860FFF7D7FC83685B0657BFAF
:103B50002069A06904F1100504F1140244BF04F1C6
:103B6000180504F11C0210F0800003D0FFF7CCFC14
:103B7000022038BD0B685D60DA60FFF7C5FCF8E72E
:103B80000120F6E7C02007402803FF1F7C03FF1F2A
:103B90002DE9F04F9C460D464C4BDFF838A1DFF87D
:103BA000388117461A681AF82530D8F8009023F0A3
:103BB0000C030AF8253005EB450302EB451685B0EA
:103BC0004FEA830B490109EB83030024FF28B4610A
:103BD0003461B460DDF838E0545001909C6049F8DD
:103BE0000B403B4B08D11A7802F0CF021A700AF84A
:103BF000254005B0BDE8F08F93F8009049F010091A
:103C000083F80090019B23F08003012B37D1D8F873
:103C1000000000EB0B09C9F804404FF0440901987B
:103C200000064ED4706890B9674538BF6746BEF845
:103C300022C01CF0400F2DD0DEF808C0ACF81400F4
:103C4000DCF80000CCF8080070603844F060DFF861
:103C50008CC00CEA07473C4344F0800724F0400442
:103C6000B76044F080065650D8F80020934449F0DD
:103C70000800CBF80840FBB90AF82500B9E7D8F8E6
:103C800000405C444FF00809C4F804904FF0050967
:103C90004824C4E73846CDE902210193FFF73AFAF8
:103CA00070603846FFF736FADDE90221019BF060CB
:103CB000CDE749F01000DFE709F0410949F01800AD
:103CC000DAE7002BF5D14846D6E700BF2803FF1FEF
:103CD00084200740C02007407C03FF1F0000FF0333
:103CE0001B4B2DE9F3411C681A4B00EB40061A6888
:103CF000B60004EB4014925912F0400F0CBF083488
:103D00000027226808BF402712F0800598461BD183
:103D1000009561680123C2F30942FEF767FE01289E
:103D200014D0D8F800108B1928469A680A4B134013
:103D30003B4343F0800222608A5902F08002134321
:103D40008B5102B0BDE8F0810120FAE70220F8E7CC
:103D50002803FF1F7C03FF1F0800FF032DE9F74F17
:103D6000614A91F81180136843F48073136002F57F
:103D700020320D4653685D4943F0807353600B68F1
:103D800043F000430B60506823F0804340F0007024
:103D900050600B602B7C08F10108012B02F104023A
:103DA0005FFA88F840F0968002F58052136843F479
:103DB000A0231360536C43F0090353644C4B4D4FE5
:103DC0004D4E00221A604D4AB8F1100F136828BFFB
:103DD0004FF0100843F4802308EB48001360800084
:103DE000FFF798F93860337843F080033370337805
:103DF0001906FCD4424C022323704FF400714FEAA1
:103E00004810FFF7ABF93F4B3F4A1860000A1070AB
:103E100059881175D97811763C4900220A702270B0
:103E200028310A70A04699468A469AF800305A0707
:103E3000FBD46B8913F0040F14BF402408241FFA2D
:103E400084FBD9F8003001935846FFF763F9019BD2
:103E50005860D9F8003001935846FFF75BF9019B91
:103E6000D9F80020D860230443F08801916043F022
:103E7000C80111603A6843F008039360802313601F
:103E80000D238AF80030224BED221A70FF2283F8AE
:103E90007020BF2283F8782004211E4A3520FFF7C6
:103EA000B7FD6B8913F0040311D11B4A13701B4B30
:103EB0008B221A7006221A72012388F800306B894F
:103EC000DB0704D540233370154B10221A7003B062
:103ED000BDE8F08F134A136843F400531360124B8C
:103EE0004FF4E0621A6069E700F00140007004409E
:103EF00000D000407C03FF1F0C21074034800440A9
:103F0000942007402803FF1F9C200740982007406B
:103F100010200740F13600000021074084200740B0
:103F2000082107403880044068D0044038B5C0F309
:103F30000B0320F47F64194424F00F046518002259
:103F400021460920FFF7FAFA30B92B1BB3F5805F41
:103F500003D904F58054F2E7012038BD2DE9F84F6C
:103F6000204D1746884681BB2B685A072AD023F07C
:103F700007032B600824DFF870B00BF1080AC4F1C6
:103F80000806BE4228BF3E460BEB040941464846A0
:103F90003246B144FEF7FFF8D145B044A7EB06071F
:103FA00019D329685A460720FFF7C8FA0446B0B962
:103FB0002B6808220833FF2158462B60FEF7E2F8F1
:103FC000002FDCD10020BDE8F88F20F007032B6024
:103FD00000F00704CFE72A6832442A60F0E70120A6
:103FE000F1E700BF2C03FF1F3003FF1F0B46014604
:103FF0001846FEF7D0B8000038B50B4D2A6822F0FD
:1040000008022A6040F460222A60084A04461368C5
:104010001B07FCD544F46024322044F00804FFF769
:104020004BFA2C6038BD00BF2C100B4024100B4005
:10403000224A234908B5136843F400331360214B27
:104040001A6842F400521A6040F243420A6019684A
:1040500041F4005119601C490A60196841F400518B
:1040600019601A490A60196841F400511960184929
:104070000A60196841F40051196016490A601A680B
:1040800042F400521A6003F59F4350334FF48862A4
:104090001A6003F5C823B83300221A604FF00112EA
:1040A00043F87C2C202243F8982C4FF40150FFF762
:1040B000A3FF094B4FF0FF321A6008BD3080044067
:1040C0000CD004403880044004D0044000D00440A8
:1040D00014D0044010D0044030100B40F8B5704D9F
:1040E000704E2C6842F210739C420FDD6E48FEF752
:1040F0007BF96FF001042B682BB100214D20FFF7F5
:1041000043F900232B600023336060E03368C3B9B8
:10411000664F3B6813F0010CFBD1D0F80130644FBF
:104120001BBA3B600378112B07F104072DD00CD884
:10413000022B26D0092B24D0B3B11B0643F4D01395
:1041400014E0062B13D00024D5E7182BF5D1594BDA
:10415000C3F800C04FF4813CC3F804C090F800C01D
:10416000554B43EA0C6301E04FF400333B60534B83
:104170001F6817F0010F9C4676D0077877B90123A6
:104180000FE01B0643F4C813F0E74A4BC3F800C026
:104190004FF4813CC3F804C0494BE7E7182F05D121
:1041A00000230B70474BCCF800301DE0D3F800E043
:1041B0001EF4803F0DD0444A1A60013400230121CF
:1041C0004D202C603360FFF7DFF84FF0FF342046BE
:1041D000F8BD1C6814F4003F3DD0292F0CBF00240B
:1041E00008240C7037491960002AACD00378092BD9
:1041F00001D0022B43D1354B1968090C1170196895
:10420000090A51701B689370314B1968090ED170FF
:104210001968090C11711968090A51711B689371A9
:104220002C4B1968090ED1711968090C11721968A3
:10423000090A51721B689372274B1968090ED172D3
:104240001968090C11731968090A51731B68937373
:104250000024D4734FE71B6813F44023A2D1082F26
:104260008DD0372F9DD18AE7062333601CB90121F9
:104270004D20FFF789F82B6801332B60A5E7192B38
:104280003FF461AF144B1968090E11701968090CDD
:1042900051701968090A91701B68D37053E700BF09
:1042A0002003FF1F1C03FF1FD45A000024100B40E3
:1042B00008100B4000100B4026003A0030100B4055
:1042C00036003A1101000F0001000D001C100B40D8
:1042D00018100B4014100B4010100B40154B70B50C
:1042E0001C461A685207FCD4134A144D1368013354
:1042F0001360134B00F50071884206D11A689207CB
:10430000FCD5104A1A60002070BD1A6812F4E00F44
:104310000DD00D4A1A606FF00300F5E7013AFAD0AC
:1043200026683605FAD52A6840F8042BE4E74FF4EE
:104330007A72F5E724100B403C03FF1F20100B405E
:1043400030100B402200000120007000F0B517462D
:104350000B4A1368ADF5017D0133064668460D46EC
:104360001360FFF7BBFF044628B97A1B0DEB05016C
:104370003046FDF710FF20460DF5017DF0BD00BF72
:104380003803FF1F00F580204930002A30B54FEA7E
:10439000003016DA22F0004222F4EE6222F004022B
:1043A00003230124DD4309E0214205D003682B40AB
:1043B0001343036021EA0401043064000029F3D1AF
:1043C00030BD40F27773ECE7014B024A1A60FEE71A
:1043D0000CED00E00400FA05104A114B11499B1A3C
:1043E000013B0AD21049114B99420BD1104A114B93
:1043F00000219B1A013B0ED2704711F8010B02F805
:10440000010BEDE70C4AD21A013AEFD311F8010B78
:1044100003F8010BF8E702F8011BEBE7F001FF1FBF
:104420001F02FF1FB05C0000100400001004000019
:104430002002FF1F900FFF1F405900004C4A4D4CB7
:104440004D4808B5136843F40063136021684B4B73
:1044500021F0060121604A49086001F5342110313C
:104460004CF220500968188011F0040F4DF6281105
:10447000198077D04FF4C87123F8081C002123F865
:104480000A1C40F2D11123F80E1C136843F4006398
:10449000136020214FF4A2720220FFF773FF394A04
:1044A000136843F020031360236843F02003236064
:1044B000354BA4221A70A02203F8012C05331A46AA
:1044C00019788C07FCD51378D806FCD4137803F040
:1044D0000C03082BFAD12D4B23221A7046225A7056
:1044E00002331A4619788906FCD513785B06FCD589
:1044F000274B4FF092721A60264B28221A70264AD8
:10450000137803F00C030C2BFAD1244A244B1360CC
:10451000244A1A63C3E90322C3E905229A609A6315
:10452000DA62FFF759FF204A136843F470031360FF
:104530001E4B00221A601E4A6FF07F4313605360C7
:104540001C4B1A6805221A6000F0B0FA1A491B4881
:10455000FEF7C2FD1A491B480622FEF725FEFEF7AC
:10456000DFFEFCE7184B4FF4E97119808DE700BFBF
:104570003880044094F00F40030106000E200540EF
:1045800080B0044080F00F400140064004400640E7
:1045900044800440004006400640064008ED00E02C
:1045A0000000FF1FB534000088ED00E000800040EF
:1045B00014E000E010E000E0900FFF1FFC5A000044
:1045C000F45A0000045B000000200540D0F800D041
:1045D000D0F804F0704738B504460D4611F8013B99
:1045E0002BB92078003818BF0120404238BD2A2B53
:1045F0000BD1013529462046FFF7EDFF0028F5D005
:1046000014F8013B002BF5D103E03F2B227803D1B6
:104610005AB94FF0FF30E9E79A4206D0A3F14100C2
:10462000192804D8203A9342F3D10134D5E7A3F1F5
:1046300061001928EDD82032F5E7000030B1094BB0
:104640001B689B070DD5012000F0D8B9064A1368F6
:104650000133022B1360F2DC022214215320FEF7F7
:10466000C3BE704790F00F406004FF1FF0B5831E7B
:10467000C1B00446052B53D8DFE803F0030E385CC5
:104680006D9F644A00231360634A1360634A13807A
:10469000634B48F280021A60624C604D5E4E4FF4EC
:1046A000807269462046FDF76FFA228E2888694697
:1046B00000F090F93368288043B9594D228E28685C
:1046C0006946FDF7AAFE60B101233360238EB3F57E
:1046D000807F0CBF0324042401215320FDF78AFEB0
:1046E0001EE02B68228E13442B60EFE74B4C4E49A3
:1046F0002088062200F06EF94C4B2080DB88834234
:1047000011D1454B1B68002B7DD04FF400314FF485
:104710000040FFF70BFC01215320FDF76BFE052441
:10472000204641B0F0BD012214215320FEF75CFE6B
:104730000124F5E73A4C3B4848F280030022082167
:104740002360FDF71DFB3A4936480822FDF71CFAA5
:10475000236808332360334D314C4FF4807269462F
:104760002846FDF711FA2A8E20686946FFF7F6FB06
:104770002B8E2068B3F5807F184420601BD0002268
:104780001146FFF7EBFB234B22681A60284948F2D9
:10479000800008222060FFF7E1FB0022206811461C
:1047A000FFF7DCFB1D4B00221A80AB68214A083B57
:1047B0001360072490E706248EE71E4F174D3A68D2
:1047C000174E28883168B2F5806F0DD34FF48062A0
:1047D00000F000F93B682880A3F580633B603368F4
:1047E00003F58063336077E700F0F4F80E49288022
:1047F000062200F0EFF80D4B2880DB88834205D1BC
:10480000044801F03BF801221E218EE702225021CC
:104810008BE700BF4404FF1F5C04FF1F8004FF1FE1
:104820006404FF1F8404FF1F635B00005004FF1F2C
:104830006C04FF1F7C04FF1F594B2DE9F0471C68D7
:104840001E46ECB190F80E90564FDFF878A1DFF8D5
:104850005C81544905224846FDF760FB10B3F878A7
:104860003C7900284AD1022C44D1FDF725FB038B6B
:1048700013B113F4847F17D00020FFF7DFFEE8E7C1
:1048800001221A60FF2108224748FDF77BFC022223
:1048900014215320FEF7A8FD21462046FDF726F8F7
:1048A000424B1860BDE8F087D8F800104048532507
:1048B0008AF83750FDF732F8002815DB3D4B3E49AA
:1048C0003B4801229A813D4A1A6090221A8118229F
:1048D0001A75D8F800300B60FDF7B4F9BDE8F04761
:1048E00002215320FDF786BD012214212846FEF740
:1048F0007BFDAEE7012CACD12046BEE7022C4CD1AB
:104900002C4C2D482146FCF773FE0F303ED0637DC2
:104910009B06E3D56589A37D2949EB1A274D1D44E4
:104920002846FFF758FE0028D8D1264C1F4A0123FD
:10493000126821462846FDF799F90228CED1A268CF
:10494000214B9A42CAD8214D082229462046FDF71C
:104950001BF9EB88A1685BBAEB80AB885BBA9AB2B3
:10496000AB802B681BBA2B6008339942B6D141F259
:1049700034239A42B2D1164B628E9A800220A28EC4
:10498000DA803060FFF772FE30608BE7BDE8F047F9
:10499000012214215320FEF727BD3068F2E700BF43
:1049A0005804FF1F7404FF1F6C04FF1F6804FF1FDF
:1049B000545B00002C04FF1FBC04FF1F9C03FF1F5F
:1049C000565B00008404FF1F88FF01005004FF1F96
:1049D0004404FF1F0A448A4200D1704711F8013B8A
:1049E00040BA80B25840C0F30313584080EA003305
:1049F000580100F4FF509BB25840ECE708B548F26C
:104A000080031B6801334AD048F284031B680133DA
:104A100045D04FF400431B68013340D0002838D004
:104A2000FEF76AFD1E4B00221A601E4A136823F42B
:104A3000872323F48063136052F80C3C23F4406313
:104A400042F80C3C52F8083C23F0010342F8083CC1
:104A500052F8043C23F4003323F0060342F8043CEC
:104A6000A2F58152103A136843F08073136052F834
:104A7000043C23F0004342F8043C0B4A4FF0FF3360
:104A8000136053609360C2F80031C2F80431C2F879
:104A90000831BDE8084048F28000FFF797BD08BD27
:104AA00010E000E03480044080E100E0024B034865
:104AB00000221A80FDF798BCFEFF0220695B00000F
:104AC00000F18002C37A202B0AD1837FC27F1B04AE
:104AD00003EB0263427F007F03EB0223184470471D
:104AE000904201D02030EDE701207047022A70B5D6
:104AF0000C4624D0042A08D0002A32D1017821F0B3
:104B00008003212B0CD0042070BD0378822B05D1AB
:104B10001A4B1B4918780D22FDF734FC0320F3E7EC
:104B20008279C379174D42EA032609062E80EAD519
:104B30004178FE2905D0FF29E5D1082C0FD80020A7
:104B4000E2E781780029DED1C1780B43DBD1012A6D
:104B5000D9D10D4B0D491878FDF714FCEDE7083C51
:104B6000A4B2084B19880029E9D0A14202D800223A
:104B70001A80D3E7091B19800620C5E7DC04FF1F54
:104B80001202FF1F360FFF1FDD04FF1F935C0000A2
:104B900038B5304B1B6804460BB1072006E00146D0
:104BA00004222D48FDF739FC08B1042038BD637B91
:104BB0002A4A1370002BF8D1A37B013B0F2BF4D8AA
:104BC00094F90C10264B00291A68E37B34DA1A2B6F
:104BD0002AD013D8032BE0D0122BDED0214D042293
:104BE000A118A818FDF7D7FA042204F1080105F16D
:104BF0000800FDF7D0FA01232B73D6E7282B06D047
:104C000003D8232B03D0252BE7E7A82BE6D1138B62
:104C100003F08803002BC0D1134BF0221A7002223C
:104C20009A703A221A73D9E7237C5B09D6D1637C48
:104C300003F03F033F2BD0E72A2BE8D007D81E2BE9
:104C4000CCD80A4A22FA03F3DB07C7D5A5E7AA2B7B
:104C5000DCE700BF300FFF1FE15B00001909FF1FF9
:104C60000805FF1F1202FF1FF404FF1F0100004888
:104C700010B5194B1A78541C1C70032A0FD8DFE8A2
:104C800002F0020F1A23154A148801F470632343BB
:104C900043EA0133C1F30311118020F8023B10BD38
:104CA0000E4A0B09148803F0F00343EA012323435F
:104CB000C1F30321F0E7094A138843EA01110023F5
:104CC000138020F8021BEAE700221A70034BC9B2D6
:104CD00019800180E3E700BF1A0BFF1F380FFF1F89
:104CE0002DE9F84FAC4F4FF0540808FB007506460D
:104CF0000C4668694FF400720021FDF743FAB9468B
:104D0000CCB1631E012B3FD9AB689C4240F09D8023
:104D10006C69A2494FF4007201EB86212046FDF731
:104D20003AFA08FB06710B2249312046FDF733FAA7
:104D30000823E37225E06B69022283F8BF210C226D
:104D400083F8C0210B2283F8C221382283F8C321C3
:104D5000F82283F8C421B82283F8C521012283F800
:104D6000C621FF2283F8CA21072283F8CB215522CE
:104D700083F8FE21AA2283F8CC4183F8CD4183F841
:104D8000FF210020BDE8F88F6C698549EB23237073
:104D90009023A370E01CFDF74EFB4FF400733F22FD
:104DA0002B852276FF22A276F82262753C22002310
:104DB0004FF0020962704FF0010A08224FF0040B15
:104DC000E372E374227584F80C9084F80E9084F8F2
:104DD00010A084F81290734985F82B2004F1360056
:104DE000E37584F816A0C5F808B0FDF7D4F9AB68F0
:104DF0006D4903F12002013BC5E907A395F82B306B
:104E0000EA606373802384F82430292384F82630F1
:104E100004F12B05032384F829300B2284F827A002
:104E200084F8289084F82AB02846FDF7B4F908FBE6
:104E300006700B2229464930FDF7ADF9552384F859
:104E4000FE31AA2384F8FF319BE701339C4209D14C
:104E50005249686901EB86214FF400721144FDF755
:104E60009AF98EE72B6A9C427DD3EA691A449442F0
:104E700079D29C4204D14D4968690422FDF78BF92F
:104E80004B4B53F8261002297FF47BAF542303FBCE
:104E90000693484F5D691B6A9C420DD14FF4004058
:104EA000FFF70EFE444B38601970444B04221A8001
:104EB000434B012204351A605420DFF8008100FBC7
:104EC0000696D7F8009096F82B30B9EB432F13D203
:104ED0003B4C2368002B3FF454AF736903F5007318
:104EE0009D42BFF44EAF344E344F3378032B21D85C
:104EF000DFE803F018272F35726902F5007295423A
:104F0000BFF43FAFB8F8004028462146FFF7B0FE97
:104F100096F82B300134A9EB43230546A8F800404E
:104F20003B60CEE73988284641F00F01FFF7A0FE2D
:104F3000FF230380234A0023236013803B803370C8
:104F40001FE73988284641F0FF01FFF791FE0F2344
:104F5000EFE740F6FF712846FFF78AFEEAE740F6E2
:104F6000FF732B80E6E7542000FB0690C1688C425B
:104F7000FFF407AF144B083C641A53F82610134B88
:104F8000640253F82630803421449942BFF4F9AECC
:104F900040694FF4007262E73C0FFF1F1805FF1FC6
:104FA0007D5B0000865B00008F5B00008F5C000073
:104FB000EC04FF1F1C0DFF1F1A0BFF1F340FFF1FF8
:104FC000E004FF1F380FFF1F1005FF1F0C05FF1F18
:104FD0002DE9F8431F4D204F2878204E002211461E
:104FE000FDF7D0F9B84604463B684BB3B4F5007FF3
:104FF00007D2287841F27502BDE8F8434021FCF75A
:1050000073BFDFF86490316899F80000FFF768FE1D
:1050100080B999F80020124B287853F822304FF4C9
:1050200000725969FDF7AEF93368A4F500740133D5
:10503000A4B23360D8F80030013BC8F80030D3E7A1
:105040000C2CD6D928780749BDE8F8430D22FDF786
:1050500099B900BFDC04FF1F2C0DFF1F200DFF1F9F
:105060000805FF1F1202FF1F1909FF1F2DE9F04F4E
:10507000BD4B90F80E901A78ABB09B46002A70D1C9
:10508000BA4EBB4FBB4D4FF4004333603B60BA4B4D
:105090004FF420321A60B94B01221A60A8462B78CF
:1050A000042256F823000AA9FEF7A0FF0A9B013349
:1050B0000DD02B78B24957F8230001EB83218022D1
:1050C000FEF794FF2A78AF4B022143F8221098F89C
:1050D0000040AD4A542303FB04214FF400600861F3
:1050E000A02008834FF4007AA8484861A1F828A0BE
:1050F00020460121FFF7F4FDA34A542304FB0323B8
:10510000A34A42F8243098F800300133DBB288F823
:105110000030002BC3D00123ADF832309D4B00246A
:10512000CDE90A3440F20123ADF838300AAA7523DC
:10513000214605208DF83A308DF83640FCF794FF73
:10514000954B0D93954B8BF800000A930AAA944B4C
:105150000B9321460520ADF830A0FCF785FF914B5D
:105160001870914E814F05220AA94846FCF7D6FED9
:10517000002855D1DFF85C928A4E3078FCF7E0FECB
:1051800000284AD0DFF820823078D8F80040002C80
:1051900000F06A82DFF82CA2844DDAF80010C1F525
:1051A000007292B22944FCF7B9FED8F80030DAF860
:1051B00000201B1A1044B0F5007FC8F80030CAF870
:1051C0000000C0F248826B4B1C78794B1F687A1C38
:1051D0001A606D4A0192542303FB0423D3F80CC0D8
:1051E0006745C0F0E781674B53F82430012B00F38B
:1051F0007681704B704A1B5D002B40F0ED8042F8C9
:1052000024300023CAF80030D8F80030002B00F01A
:10521000258204217520FEF7B7F82BB0BDE8F08F8A
:105220009DF82B40012C49D0752C00F08780002C74
:1052300099D19DF82C30042B95D122462146204649
:10524000FEF78CFE4E4B25461A78E52A69D0DA7AAD
:105250000F2A02D012F00A0F63D1002D5ED0203445
:10526000202A5FD10322602C9A760AD9A4F1210367
:105270005B095A1C05EB4215203C6FF01F0202FB34
:105280000344DFF8EC803E49D8F800002022FEF706
:1052900065FED8F800002246294620302034FEF76B
:1052A0005DFE7F2C40D9002211461046FEF756FEC7
:1052B000344B02221A60FFF787F854E79DF82C3030
:1052C000CC2B11D00AD8CA2B22D0CB2B7FF44BAFDA
:1052D00000212046FDF7E4FB384816E0DD2B7FF483
:1052E00042AFFFF775FE3EE700250422294632480B
:1052F0003560FCF747FF324B2E481D60314B22468C
:1053000029461D60FCF73EFF2F48FDF76DF82AE7A0
:1053100000210220FDF7C4FB2C48F6E71D4620249F
:105320009EE7002520338FE72022002102A8FCF70A
:1053300029FF3868202202A92044AFE79DF82C20DD
:105340000DF12D014846FCF7E9FD9DF82D30FE2BAF
:105350007FF409AF1E48FDF747F8012211461548B2
:10536000FCF710FFFFE600BFDD04FF1F1005FF1F65
:105370001405FF1F1909FF1F0C05FF1FE804FF1F7D
:105380001805FF1FEC04FF1F3C0FFF1F300DFF1F10
:105390000805FF1FED4A000040000201914B00008C
:1053A00000020004DC04FF1F300FFF1F1A09FF1F5B
:1053B000200DFF1F1809FF1F240DFF1FA75B000012
:1053C0002C0DFF1FE404FF1F9B5B0000B75B000078
:1053D000C45B00001C0BFF1FBE49012B51F82410B9
:1053E00000914AD152F82430002B3FF40AAF002339
:1053F00042F82430B84A4FEAC41E02EB8422D37A22
:10540000002B7FD12B787B2B0AD195F84A307D2B4E
:1054100006D1EA786B7813436A7913433FF4F1AE0F
:105420002B7A4D2B16D16B7A612B13D1AB7A632B70
:1054300010D195F85430412B0CD195F85530542BA0
:1054400008D195F85630542B04D195F85730522B8B
:105450003FF4D7AEA149A24B0A681344B3F5802F9D
:10546000BFF4CFAE4B689F4AA3F50043813B934204
:105470003FF6C7AE9C4B02221A55781EA0EB0C00DB
:1054800043029A489A4950F8242022B9012241F84F
:10549000243040F8242051F82400C0F18000184442
:1054A000009B1844934B53F8243098420DD2009B34
:1054B0008033984209D3C0F52032B2F5007F874986
:1054C00028BF4FF40072FEF749FD221DD2B21E2103
:1054D0007520FDF789FF884A012342F82430019A9C
:1054E000542303FB04231B6A9F4206D17B494FF4DC
:1054F000007209EB4420FCF74EFE804B002243F87B
:1055000024207EE60F2B31D0202B2FD099072DD5CC
:105510001378E52B2AD0137D517D1B0443EA0163E8
:10552000917E0B43D17E43EA0123991E0CEBC1010E
:105530008F4203D308318F42FFF463AE03EB430085
:10554000C10803F007030EEBD000013B59F820001F
:10555000062B05D8DFE803F00C0F191C1F292C00BF
:10556000C0F30B0340F6FF718B42DED1203246E7D9
:10557000C0F30B33F6E70131714459F821301B02B7
:1055800003F4706343EA1063ECE7C0F30B13E9E73D
:10559000C0F30B43E6E70131714459F821301B0198
:1055A00003F47F6343EA1073DCE7C0F30B23D9E70E
:1055B000030DD7E79B689F420AD001339F428ED1EB
:1055C00045484FF4007200EB84202946104405E062
:1055D00041484FF40072294600EB8420464DFCF709
:1055E000DAFD55F82430022B7FF479AF3A4800EB0E
:1055F000842000F1200300F5087113F820CC13F883
:10560000152CBCF1E50F0FD1202A0FD1314B53F8E7
:105610002400384B53F82410091AFEF787FC0023A6
:1056200045F82430354AEAE5202A02D02033994251
:10563000E3D1FFF745FA834600287FF450AF254BAE
:1056400053F824002B4B53F82410091AFEF76EFC74
:1056500045F824B043E7002B7FF48EAD284930781D
:105660000D22FCF78FFE87E5254D80220AA9FCF765
:1056700055FC0422A8180BA9FCF78DFD30782C727C
:1056800001216C72AC72EC722C73FCF76DFC1D4C3A
:105690009DF835301C4A237052F823709DF837303E
:1056A000032B04D019491A481222FCF774FD9DF906
:1056B00034209DF83730002A80F28F80232B6ED063
:1056C00028D8122B3CD01A2B47D0032BC6D1104917
:1056D000122233E01005FF1F1805FF1F1A09FF1FD4
:1056E000FFFF00E07F7F07001809FF1FF004FF1F86
:1056F000280DFF1F0C05FF1FEC04FF1F240DFF1FCB
:105700001202FF1F1909FF1F0805FF1F735C00002D
:10571000F404FF1F03F07F02282A2CD0252B9DD1F3
:1057200000223B69ADF80C203A8D013B52BAADF82E
:105730000E201BBA082202930DEB0201307809E01B
:105740009DF8383030785B0902D001232B7385E750
:1057500034492422FCF716FE80E70422324902A8CD
:10576000FCF719FD3B8BDB0644BF80238DF80A3024
:10577000042202A9E2E7DDF839202C4912BAA82B4D
:105780000A6007D1DDF83D301BBA294A1360FFF7E4
:105790001FFCF1E4BDF83E305BBA9BB2F5E79DF823
:1057A0003E309DF83F4023490C2202A844EA0324DE
:1057B000FCF7F1FC3B8B13F0880F09D013F0200F9E
:1057C00014BF022301238DF810303B691BBA0393E9
:1057D0000C2C224628BF0C22CBE703F07F022A2A9A
:1057E00008D0002B7FF43AAF3B8B03F08803002BEB
:1057F000ABD033E7DDF839200C4912BAAA2B0A6086
:105800000AD1DDF83D301BBA21780B4A5B0242F821
:105810002130C8F80030AFE4BDF83E305BBA9BB22F
:10582000F2E700BF2D5C0000DD5B0000200DFF1FD4
:105830002C0DFF1F215C0000240DFF1F122303808D
:10584000004870470F5C0000044B1B681BB120230D
:105850000380034870471846704700BFE804FF1FE5
:10586000E55B000005289FBF034B53F82000037839
:105870000B8088BF00207047945C000010B5A0B07A
:105880000446802200216846FCF77CFC0823294955
:105890008DF80B300B226846FCF77DFC4FF4C043BB
:1058A000ADF81630ADF80E30A168234B049344F2E6
:1058B00065720023ADF8182007930B22A1B308A846
:1058C000FCF769FC1823E18822688DF82C3020232E
:1058D0008DF82B30032300298DF83A30A2F50042D1
:1058E000A38808BF4FF4C041803A44F26570002B92
:1058F00008BF0346ADF83610ADF82E100F9269467A
:1059000080224FF40040ADF83830ADF83230ADF8B9
:105910003030FEF723FB044640B902460146FEF74D
:105920001DFB204620B010BD0449C8E74FF0FF34EE
:10593000F7E700BF8F5B000065476547D15B00005C
:1059400053442D63617264206E6F742072657370AE
:105950006F6E64696E670D0A004E6F6E2D666F7212
:105960006D6174746564200053442D636172640D2D
:105970000A0053442D6361726420766F6C74616712
:1059800065206572726F720D0A0053442D63617257
:1059900064205631206F72204D4D43202D206E6FB4
:1059A0007420737570706F72746564210D0A0053F2
:1059B000442D63617264205632202D2000486967AF
:1059C000682043617061636974790D0A00737461C2
:1059D0006E646172640D0A004D616C666F726D6574
:1059E00064202D20004E4F542046415431362D2046
:1059F000004469736B2044206D6F756E746564009C
:105A0000443A5C00203120353032203530322000DD
:105A10004A616E00466562004D617200417072001D
:105A20004D6179004A756E004A756C0041756700DA
:105A3000536570004F6374004E6F760044656300D9
:105A4000203C4449523E202020202020202020209D
:105A50002000000100000000000000010100000023
:105A6000021010101010101010101001010101018F
:105A700000000404040404040404040404040404EE
:105A800004040404040404040404040420022000A4
:105A90000000080808080808080808080808080896
:105AA0000808080808080808080808080020000076
:105AB00000000000009508000001AA870200000015
:105AC000002940FF800010000200020300000000D7
:105AD0000100000054494D454F55542121210D0A24
:105AE0000057646F6700757362004D617373537480
:105AF00000534400015748754D530000010000C099
:105B000000000000E15A0000D53000000000000055
:105B100002000100E65A00006D5000002500FFFF62
:105B200000000400EA5A0000690C00004500FFFF75
:105B300000000400F15A0000394800002500FFFF72
:105B40000000040000000000000000000000000051
:105B5000000000002F00736F6674776172652E621B
:105B6000696E00A748B65311240D0A436865636B3C
:105B7000696E6720466C6173682E2E2E004D53446B
:105B80004F53352E300046415431322020200055ED
:105B9000504C4F41445F4449534B005553422052AF
:105BA000657365740A0D0055534220537573706513
:105BB0006E6465640A0D0055534220526573756D1D
:105BC000650A0D00456E756D6572617465640D0A38
:105BD00000534F46545741524542494E000300007E
:105BE0000055534243090220000101048032090498
:105BF00000000208065005070501024000000705E5
:105C000082024000000A0343006F006E006600122B
:105C1000011001000000082504FC0300010102033B
:105C200001000000080001F80003000200008000ED
:105C3000011F000000755461736B6572205553425B
:105C4000204D5344204C6F616465722020312E300A
:105C500030080349006E0074000A034D0061006EB5
:105C600000750010034D0079002000500072006F95
:105C7000006400800000000000000A000000000036
:105C800000000000000A033000300030003100F84E
:105C9000FFFF0000AC5C0000595C0000635C00008A
:105CA000855C0000055C0000515C000004030904F1
:105CB0003700000000070000000009000000000697
:105CC00000000002FF018021017001780906FCD567
:0F5CD000704755534253000000000000000000D1
:0400000300000410E5
:00000001FF
