:10808000F8FF022019820000C113010079130100DA
:1080900079130100791301007913010079130100AC
:1080A000791301007913010079130100C113010054
:1080B000C113010079130100CD060100D1070100B1
:1080C000C1130100C1130100C1130100C11301005C
:1080D000C1130100C1130100C1130100C11301004C
:1080E000C1130100C1130100C1130100C11301003C
:1080F000C1130100C1130100C1130100C11301002C
:10810000C1130100C1130100C1130100C11301001B
:10811000C1130100C1130100C1130100C11301000B
:108120001904010025040100C1130100C11301005D
:10813000C1130100C1130100C1130100493C01003A
:10814000C1130100A91D0100C11301003D2301005D
:10815000C1130100753D0100C1130100C1130100ED
:10816000C1130100C1130100C1130100C1130100BB
:10817000C1130100C1130100C1130100C1130100AB
:10818000C1130100C1130100C1130100C11301009B
:10819000C1130100292B0100C1130100C11301000B
:1081A000C1130100C1130100C1130100C11301007B
:1081B000C1130100C1130100C1130100C11301006B
:1081C000C1130100C11301009D280100C11301006A
:1081D0006D3E0100C1130100C1130100C113010074
:1081E000C1130100C113010031040100C1130100DA
:1081F000C1130100C1130100C1130100C11301002B
:10820000C1130100C1130100C1130100C11301001A
:10821000C1130100C1130100584B4CF2205210B59C
:108220001A804DF628121A8000BF00BF09F0CCF862
:10823000534B4FF030621A60524A9A60524ADA60E9
:10824000524B4FF470021A60514A136813F4807352
:1082500004D150490B604FF4A85313604E4B1A7869
:10826000110703D51A7842F008021A704B4B4C499B
:108270002A221A704B4A4C4B8B4204D252F8040FFC
:1082800043F8040BF8E7494B494900228B4202D2DC
:1082900043F8042BFAE74749474A002352F82300E2
:1082A00041F823000133662BF8D1444B444A802126
:1082B00003F8011B9342FBD1424B3E4A1A60424BEA
:1082C0008A221A70A3F5805324225A70A0221A70B1
:1082D0009A799207FCD59A79D406FCD43B4A9379D3
:1082E00003F00C03082B394BF9D103221A714622F3
:1082F0005A719A799006FCD5344A9179334B4906E4
:10830000FBD5334A4FF08271116009215160202260
:108310001A709A7902F00C020C2AFAD12D4B2E4ACF
:108320001A602E4B2E4A1A6000225A60072243F828
:10833000042C2C4AC3F80C2D62B609F02DFB154B0A
:108340001B68DA0705D5284809F0ACFA274B284AFC
:108350001A60284B1B785B0609D5244C244B2268F5
:108360009A4204D1204809F09DFA002323600CF0C2
:10837000C3FD09F02FF808F05DFFFEE70E20054071
:1083800030800440823F04000100002B88ED00E0B3
:1083900010D0034014D0034002D0074000E0074053
:1083A0005014FF1FC0AE0100F806FF1F5014FF1F3E
:1083B0005C1DFF1F0002FF1F8080000000E400E042
:1083C00056E400E008ED00E00050064000400640A2
:1083D0004480044004800440C010050014E000E024
:1083E000BFD401000000202046BB13601CE0034006
:1083F000A5C3945A00F00740FFFFFFFFFFFFFFFFF8
:10840000FFFFFFFFFFFFFFFFFFFFFFFFFFFFFFFF7C
:10841000FFFFFFFFFFFFFFFFFFFFFFFFFFFFFFFF6C
:10842000FFFFFFFFFFFFFFFFFFFFFFFFFFFFFFFF5C
:10843000FFFFFFFFFFFFFFFFFFFFFFFFFFFFFFFF4C
:10844000FFFFFFFFFFFFFFFFFFFFFFFFFFFFFFFF3C
:10845000FFFFFFFFFFFFFFFFFFFFFFFFFFFFFFFF2C
:10846000FFFFFFFFFFFFFFFFFFFFFFFFFFFFFFFF1C
:10847000FFFFFFFFFFFFFFFFFFFFFFFFFFFFFFFF0C
:10848000FFFFFFFFFFFFFFFFFFFFFFFFDEF9FFFF23
:1084900010B5054C237833B9044B13B10448AFF33E
:1084A00000800123237010BD5014FF1F0000000046
:1084B000C4AE0100084B10B51BB108490848AFF322
:1084C00000800848036803B910BD074B002BFBD0A0
:1084D000BDE81040184700BF000000005414FF1F03
:1084E000C4AE01005014FF1F0000000010B532217F
:1084F0002DED028BC648C74C0BF0BAF9C64808F000
:10850000F7FA0621C5480BF0B3F9C54BC2481978F4
:108510000A22002308F0FCFA0121C2480BF0A8F956
:108520002178092940F2E88100230A22BA48BE4C8A
:1085300008F0EEFA0121BB480BF09AF921780929DD
:1085400040F2D48100230A22B348B84C08F0E0FA84
:10855000B14808F0CDFA0621B5480BF089F9B54BC2
:10856000AD4819780A22002308F0D2FA0121AD485B
:108570000BF07EF92178092940F2B2810A2200230A
:10858000A548AD4C08F0C4FAA34808F0B1FAAB4BCB
:10859000AB4893ED008AB8EEC88A0D21F2EE048A4A
:1085A0000BF066F9C8EE287A17EE900A0CF004F981
:1085B00041EC100B0121984808F0F2FA964808F0B7
:1085C00097FAA04BA04893ED008AB8EEC88A0A211A
:1085D0000BF04EF9C8EE287A17EE900A0CF0ECF882
:1085E00041EC100B01218C4808F0DAFA0121974880
:1085F0000BF03EF9964B884819780A22002308F0C0
:1086000087FA012187480BF033F92178092940F2D4
:1086100061810A22002380488E4C08F079FA7E4856
:1086200008F066FA8C4B8D4893ED008A0921B8EE6C
:10863000C88A0BF01DF9F2EE047A88EE277A17EE5D
:10864000100A0CF0B9F841EC100B0121724808F047
:10865000A7FA01217D480BF00BF9814B6E48197880
:108660000A22002308F054FA01216E480BF000F9A9
:108670002178092940F2288100230A226648794C92
:1086800008F046FA644808F033FA132176480BF0F4
:10869000EFF8764B604819780A22002308F038FA80
:1086A0005D4808F025FA724B724893ED008A0F215D
:1086B000B8EEC88A0BF0DCF8F2EE047A88EE277A7E
:1086C00017EE100A0CF078F841EC100B012152481B
:1086D00008F066FA01215D480BF0CAF8664B4E4877
:1086E00019780A22002308F013FA01214D480BF0F3
:1086F000BFF82178092940F2E1800A220023464888
:108700005E4C08F005FA444808F0F2F95C4B5D480D
:1087100093ED008A0F21B8EEC88A0BF0A9F8F2EEAB
:10872000047A88EE277A17EE100A0CF045F841EC2F
:10873000100B0121384808F033FA012143480BF0AF
:1087400097F8514B344819780A22002308F0E0F9D1
:10875000012134480BF08CF82178092904D8012133
:108760004A480BF085F821782B4800230A2208F0AC
:10877000CFF9294808F0BCF90F2145480BF078F8EB
:10878000444B254819780A22002308F0C1F92248F1
:1087900008F0AEF90F2140480BF06AF83F4B1E4835
:1087A00019780A22002308F0B3F91B4808F0A0F951
:1087B00011213B480BF05CF83A4B1748197808F048
:1087C000E7F9154808F094F9102137480BF050F8F4
:1087D000364B1148197808F0DBF90F4808F088F992
:1087E0000A2133480BF044F8324B0B48197808F053
:1087F000CFF9094808F07CF931212F480BF038F8FF
:10880000BDEC028B0448BDE8104008F071B900BF10
:10881000489801008D15FF1FE809FF1F7C98010093
:108820001415FF1FC8A50100D014FF1F8D14FF1FD2
:1088300084980100C915FF1F2C08FF1FB415FF1FE6
:108840008C9801005C07FF1F9C980100A89801000C
:108850003608FF1FA007FF1F0C07FF1FAC98010081
:10886000E407FF1F1C07FF1FB89801006107FF1FE7
:108870000807FF1FCC9801005407FF1F3408FF1F93
:108880003C08FF1FDC9801003508FF1F44980100D9
:10889000EC9801008415FF1FFC9801000715FF1FCD
:1088A0000C9901009414FF1F20990100B914FF1FB7
:1088B000349901006007FF1F409901000121114810
:1088C0000AF0D6FF217818E701210E480AF0D0FF00
:1088D0002178D1E601210B480AF0CAFF217898E6F9
:1088E000012108480AF0C4FF217847E60121054824
:1088F0000AF0BEFF217825E6012102480AF0B8FF00
:10890000217811E64498010010B55C4C5C4988B0B0
:10891000684608F065FA2178092940F2A88004A881
:1089200008F090FA04A9684608F050FB554C04A8DA
:1089300008F016FA5449684608F04CFB21780929DA
:1089400040F28F800A2204A808F090FA04A9684631
:1089500008F03CFB4D4C04A808F002FA4A4968466E
:1089600008F038FB2178092975D90A2204A808F0F3
:108970007DFA04A9684608F029FB454C04A808F0D4
:10898000EFF94449684608F025FB217809295CD9AC
:108990000A2204A808F06AFA04A9684608F016FB3F
:1089A0003D4C04A808F0DCF93C49684608F012FB8D
:1089B0002178092943D90A2204A808F057FA04A902
:1089C000684608F003FB364C04A808F0C9F933499F
:1089D000684608F0FFFA2178092904D83149684629
:1089E00008F0F8FA21780A2204A808F03FFA04A94E
:1089F000684608F0EBFA04A808F0B2F92A4968467C
:108A000008F0E8FA294B93ED000AB8EEC00AF2EE3E
:108A1000047A80EE270A012104A808F03BFA04A991
:108A2000684608F0D3FA04A808F09AF96946204885
:108A300008F07AFA684608F093F908B010BD1949B1
:108A4000684608F0C7FA2178B5E71649684608F085
:108A5000C1FA21789CE71349684608F0BBFA2178EF
:108A600083E71049684608F0B5FA21786AE70D49AE
:108A7000684608F0AFFA217851E700BFD014FF1F15
:108A8000749901001415FF1F7C9901008D15FF1FBB
:108A9000C915FF1F809901008D14FF1F88990100DF
:108AA0001D15FF1F7899010084990100B415FF1F5F
:108AB0009815FF1F324ADFED336A92ED007A324992
:108AC000324A334812680068F8B5324B324DD3ED64
:108AD000007A324B324F1B786B7027EE267A3F7844
:108AE000DFF8E4E0AF70BDEEC77A2E4F0C682E4E73
:108AF0002E499EF800C097F800E0097836782A7170
:108B000017EE103AEB731B12AB7367EEA67A284B85
:108B100069711F78274BAE71FDEEE77A12121E784D
:108B2000EA70031217EE902A2349EB71234B287247
:108B300085F80AE009782C734FEA242E101285F884
:108B400009C085F80BE06F736A74287429701B786C
:108B5000AE74EB744FF4C87401E015F8011F2046A1
:108B6000013408F03FFBB4F5D27FF6D1142114484C
:108B70000AF07EFE1348BDE8F84007F0B9BF00BF19
:108B80001807FF1F0000C8420815FF1F5C07FF1FE2
:108B90000C07FF1F0407FF1F9814FF1F8D15FF1FF1
:108BA000D014FF1FA007FF1F2C08FF1F3608FF1F50
:108BB000AC15FF1FDC07FF1F1415FF1FEC07FF1F7D
:108BC0008C990100E809FF1FE407FF1F304B19686B
:108BD00040F6FB129142F0B546D02E4A2E4812685C
:108BE0002E491A60DFF8ECE02D4F2E4E2E4D2F4C03
:108BF0002F4B00780978CEF800203A60307028704A
:108C0000217019702B4BDFED2C7A93ED007AB4EEC6
:108C1000677AF1EE10FA12D1284C2949294A2A4ED6
:108C20002A4F2B4BC2ED007A19253D202570087084
:108C300001223760BDE8F0401A70FFF73BBF164FC6
:108C4000164E1E4A1E4D3F7836781E481770002477
:108C50001D491F4B2E7001220460BDE8F04081EDDC
:108C6000007A1A70FFF726BF1A4A0E4C1A490E4FA7
:108C700011600E4E0E4D0A4819213D2221703970A7
:108C8000002440F2DC5132702A7004601960B9E7A8
:108C90005C07FF1FB415FF1FC915FF1F8D14FF1FB1
:108CA0000815FF1F3608FF1FE407FF1F2C08FF1FD2
:108CB000A007FF1F3008FF1FE1FAC7C2DC07FF1F34
:108CC000EC07FF1F1807FF1F0407FF1FE1FAC74249
:108CD0001D07FF1F0C07FF1F22FCFFFF184BDFEDD6
:108CE000197A93ED007AB4EE677AF1EE10FAF0B4E7
:108CF00011D1154C1549164A164E174F174BC2ED98
:108D0000007A19253D202570087001223760F0BCDB
:108D10001A70FFF7CFBE124F124E0B4A0B4D3F7821
:108D200036780B48177000240A490C4B2E7001222C
:108D30000460F0BC81ED007A1A70FFF7BBBE00BF83
:108D40003008FF1FE1FAC7C2DC07FF1FEC07FF1F57
:108D50001807FF1F0407FF1FE1FAC7421D07FF1F87
:108D6000C915FF1F8D14FF1FF8B53E4D4FF4C87491
:108D7000204608F01DFA0134B4F5D27F05F8010F42
:108D8000F6D1394C39483A4B3A4D27786678A27873
:108D900021790770E0782E701A7007F0DDFFC31399
:108DA000012B0ABFA0F57F40334B334B334D66791F
:108DB000A279217A2E7008BFFF381860304BE07915
:108DC0001A7007F0C9FFC313012B0ABFA0F57F403B
:108DD0002C4B2C4B2C4DA27A667A217B2E7008BF2F
:108DE000FF381860294BE07A1A7007F0B5FFC313FB
:108DF000012B0ABFA0F57F40254B254B627BE17B11
:108E000008BFFF381860234BA07B1A7007F0A4FF3F
:108E1000C313012B04BFA0F57F40FF3807EE900A73
:108E2000DFED1D6A1D4B617C207CF8EEE77A87EE52
:108E3000A67A83ED007A07F08FFFC313012B04BFDE
:108E4000A0F57F40FF3807EE900ADFED136A144A61
:108E5000144BE17C1170F8EEE77A87EEA67A83ED89
:108E6000007AF8BD9714FF1F9814FF1FD114FF1F3D
:108E70007F14FF1F7D14FF1F5C07FF1F3608FF1FB5
:108E80002C08FF1F0C07FF1FE407FF1FA007FF1F91
:108E90000815FF1FAC15FF1F0000C8421807FF1F71
:108EA000DC07FF1F0407FF1F2F4ADFED306A92ED3A
:108EB000007A2F482F4A3049F8B5304B0468D3ED7B
:108EC000007A2F4B12781D682E4B2F4809685A7074
:108ED00027EE267A67EEA67ABDEEC77A00782B4F8A
:108EE000987017EE102A2A489A73197112120912F3
:108EF000284E97F800C05A73FDEEE77AD970264ADB
:108F00002649274F367890F800E083F806C017EE20
:108F1000900ADFF898C03F785E710E7811781C7265
:108F20002212DA719CF800405F7202122F121D7338
:108F300083F80AE0DF721874DA735E741D461970E4
:108F40009C74C82401E015F8011F2046013408F084
:108F500049F9DB2CF7D1152112480AF089FC124897
:108F6000BDE8F84007F0C4BD3808FF1F0000C84244
:108F70003C08FF1F8D15FF1F0807FF1FE007FF1F9D
:108F8000F014FF1F9814FF1FD014FF1F1C07FF1FB2
:108F90003408FF1F5407FF1F1415FF1F6807FF1F2A
:108FA0003508FF1FC0990100E809FF1FE507FF1FF3
:108FB000304B196840F6FB129142F0B546D02E4A6C
:108FC0002E4812682E491A60DFF8ECE02D4F2E4E25
:108FD0002E4D2F4C2F4B00780978CEF800203A60A8
:108FE00030702870217019702B4BDFED2C7A93EDC7
:108FF000007AB4EE677AF1EE10FA12D1284C2949C2
:10900000294A2A4E2A4F2B4BC2ED007A19253D20C2
:109010002570087001223760BDE8F0401A70FFF734
:1090200043BF164F164E1E4A1E4D3F7836781E48D7
:10903000177000241D491F4B2E7001220460BDE8EB
:10904000F04081ED007A1A70FFF72EBF1A4A0E4CDD
:109050001A490E4F11600E4E0E4D0A4819213D223D
:1090600021703970002440F2DC5132702A700460A3
:109070001960B9E70807FF1FB415FF1FC915FF1FC7
:109080008D14FF1FF014FF1F5407FF1F3508FF1F2B
:109090001C07FF1F3408FF1F3008FF1FE1FAC7C27B
:1090A0006807FF1FE507FF1F3808FF1FE007FF1FC6
:1090B000E1FAC7421F07FF1F3C08FF1F22FCFFFF0A
:1090C000184BDFED197A93ED007AB4EE677AF1EE82
:1090D00010FAF0B411D1154C1549164A164E174F17
:1090E000174BC2ED007A19253D202570087001222A
:1090F0003760F0BC1A70FFF7D7BE124F124E0B4A02
:109100000B4D3F7836780B48177000240A490C4BFA
:109110002E7001220460F0BC81ED007A1A70FFF716
:10912000C3BE00BF3008FF1FE1FAC7C26807FF1FB8
:10913000E507FF1F3808FF1FE007FF1FE1FAC742DE
:109140001F07FF1FC915FF1F8D14FF1FF8B53D4DE9
:10915000C824204608F02CF80134DB2C05F8010F58
:10916000F7D1394C39483A4B3A4D27786678A2788E
:1091700021790770E0782E701A7007F0EDFDC313A7
:10918000012B0ABFA0F57F40334B334B334D66793B
:10919000A279217A2E7008BFFF381860304BE07931
:1091A0001A7007F0D9FDC313012B0ABFA0F57F4049
:1091B0002C4B2C4B2C4DA27A667A217B2E7008BF4B
:1091C000FF381860294BE07A1A7007F0C5FDC31309
:1091D000012B0ABFA0F57F40254B254BA17B08BF83
:1091E000FF381860607B07F0B7FDC313012B04BF85
:1091F000A0F57F40FF3807EE900ADFED1E6A1E4B98
:10920000217CE07BF8EEE77A87EEA67A83ED007AA0
:1092100007F0A2FDC313012B04BFA0F57F40FF3868
:1092200007EE900ADFED136A1448154A154B657C6A
:10923000A17C0570F8EEE77A117087EEA67A83EDCF
:10924000007AF8BD9714FF1F9814FF1F6C15FF1FBD
:10925000AB15FF1F1E15FF1F0807FF1F5407FF1F39
:109260001C07FF1F3C08FF1F3508FF1F3408FF1FA6
:10927000F014FF1F0000C8423808FF1F6807FF1FD7
:10928000E507FF1FE007FF1F2DE9F04F4E4EDFF807
:1092900044B1DFF844A1DFF84491DFF8448189B09C
:1092A00006F11A043546012713235BF8042F4749BA
:1092B000684604F0C5FD9DF80C209DF80400029955
:1092C000434B32733071B16003AA12F8011F03F8E7
:1092D000011BA342F9D1079BEB61684604F04CFCEB
:1092E000394804F04BFC052008F008FB132358F81C
:1092F000042F3649684604F0A3FD9DF80C209DF824
:1093000004000299324B2A732871A96003AA12F84B
:10931000011F03F8011BA342F9D1079BEB616846CB
:1093200004F02AFC284804F029FC052008F0E6FA9D
:10933000132359F8042F2549684604F081FD9DF850
:109340000C209DF804000299214B2A732871A96012
:1093500003AA12F8011F03F8011BA342F9D1079BCE
:10936000EB61684604F008FC174804F007FC052090
:1093700008F0C4FA13235AF8042F1449684604F07D
:109380005FFD9DF80C209DF804000299104B2A7394
:109390002871A96003AA12F8011F03F8011BA34258
:1093A000F9D1079BEB61684604F0E6FB064804F040
:1093B000E5FB0137052008F0A1FA0D2F7FF474AF0B
:1093C00009B0BDE8F08F00BF4815FF1FCC15FF1F87
:1093D0005515FF1F2007FF1FA807FF1FF407FF1FDA
:1093E0006C07FF1F2DE9F0475C4F5D4C3B785D48F3
:1093F00054F82310DFF874A1DFF87491DFF874815A
:10940000594D88B004F09EFD3B7856485AF8231019
:1094100004F098FD3B78534859F8231004F092FD6E
:109420003B78504858F8231004F08CFD3B784D49A8
:1094300054F8232008AE1323684604F001FD16F803
:10944000141D9DF80420029B2A71AB60297305F15D
:109450000D0332461A3512F8011F03F8011BAB4207
:10946000414CF8D1079BE361684604F085FB204638
:1094700004F084FB052008F041FA3B7839495AF89A
:1094800023206846132304F0DBFC029A9DF80C307D
:109490009DF80410A2602373217104F10D0332467C
:1094A00012F8011F03F8011BAB422F4CF8D1079BA8
:1094B000E361684604F060FB204604F05FFB052092
:1094C00008F01CFA3B78274959F8232068461323F3
:1094D00004F0B6FC029A9DF80C309DF80410A260CE
:1094E0002373217104F10D03324612F8011F03F8B2
:1094F000011BAB421C4CF8D1079BE361684604F0AA
:109500003BFB204604F03AFB052008F0F7F93B78D6
:10951000144958F823206846132304F091FC9DF861
:109520000C309DF80410029A23732171A26004F19B
:109530000D0316F8012F03F8012BAB420A4CF8D1AA
:10954000079BE361684604F017FB204604F016FB16
:10955000052008F0D3F908B0BDE8F0871415FF1F07
:109560002007FF1FCC15FF1F4815FF1F6C07FF1FAB
:10957000F407FF1FA807FF1F10B5134C1348012164
:109580000AF076F9204607F0B3FA182110480AF0DD
:109590006FF9204607F0ACFA0A210E480AF068F984
:1095A000204607F0A5FA25210B480AF061F920466C
:1095B00007F09EFA102109480AF05AF92046BDE842
:1095C000104007F095BA00BFE809FF1FC4A50100CD
:1095D0003C9A0100589A0100649A01008C9A01009B
:1095E00010B41C4B1C4A1968106889B0009100998E
:1095F000884203D91968019101991160174A1278BC
:109600003AB11968164A029102991068114C8842C1
:109610001BD81968134A0491049910680D4C8842AC
:1096200003D921680591059911601A680E4B0692BD
:10963000069A19680748914203D902680792079A67
:109640001A6009B05DF8044B7047216803910399D3
:109650001160DEE77818FF1F8815FF1F0C15FF1F2C
:109660001015FF1FB015FF1FD814FF1F224A234BF0
:10967000D2ED006AD3ED007A214837EEC00A66EEDB
:10968000A77A10B587EE807A82B01E4C0D2177EE56
:10969000667AFDEEE77ACDED017A0AF0E9F80199F4
:1096A000204607F075FA204607F022FA01980BF0E1
:1096B00071F841EC100B0AF083FC51EC100B0BF02D
:1096C0009FFBDFED115ADFED117A9FED117A9FEDCF
:1096D000116A06EE900AE6EEA57A26EE877AF7EE94
:1096E000005A27EE267AE6EE877A85EEA70A30EE54
:1096F000460A02B010BD00BF2808FF1FF007FF1F79
:10970000A09A0100E809FF1F2133743934347E3AEE
:10971000881AAC3333938843F8B500211E2008F033
:10972000D3F82823013BFDD10C2008F0D3F8002802
:109730006CD1374B374C1B68374D20604FF00042DF
:10974000DA6228705863DA6A002AFCDA9A6B334FBF
:10975000D2B2910658BF01213A7058BF29704FF01C
:10976000004002F01F010022D8620E025A63DA6A3A
:10977000002AFCDA996BC9B2314300224FF000464F
:10978000DE6208025A63DA6A002AFCDA996BC9B20F
:10979000014300224FF00040D86209025A63DA6A9E
:1097A000002AFCDA9B6B3B70DBB20B432822236060
:1097B000184E1346013BFDD101211E2008F084F80C
:1097C000C82008F09BF82B78E3B93368144ADFED22
:1097D000156AD2ED007A144D002BB8BF0F331B1160
:1097E00007EE103AB8EEC77A236067EE277A67EE85
:1097F000A67AC5ED007A01211E2008F065F895EDE6
:10980000000AF8BD336843F07043DFE7064DF2E726
:109810008809FF1F8814FF1FE114FF1FE014FF1FBA
:10982000F007FF1F00008033D414FF1F70B5334EC4
:10983000334D30782DED028B002108F045F84FF4C0
:10984000FA7008F05BF8FFF767FF9FED2E8A85ED51
:10985000000A002407E0FFF75FFF022C88BF38EE04
:10986000008A85ED000A0134E4B2082CF3D1F1EE50
:10987000048AC8EE287AB0EE670AC5ED007AFFF7D1
:10988000F5FE10EE100A85ED000A0AF095FF41EC96
:10989000100B01211C4807F083F902211B4809F035
:1098A000E7FF194807F024F995ED007ADFED186A13
:1098B000184BF2EE027A27EE277AC7EE287A77EE77
:1098C000A67A17EE900AC3ED007AC5ED007A0AF089
:1098D00073FF41EC100B01210B4807F061F90221E5
:1098E0000D4809F0C5FF084807F002F9BDEC028BEE
:1098F00030780121BDE8704007F0E6BFA407FF1FE4
:109900009014FF1F00000000E809FF1FB09A01003B
:10991000000000428414FF1FB49A01002DE9F047B3
:1099200096B000AF07F10800002107F059FA0025B2
:1099300008F046FF002802DD002D00F05B813A6947
:1099400002F1080323F00703ADEB030D694607F1AD
:1099500008000132002307F0B9FB6846B0490DF05A
:10996000D3FBF0B107F13405002445F8040FAC49EE
:1099700000200DF0C9FB01340028F6D107F13805AD
:1099800005EB840455F8046B30460CF019FB0146D6
:10999000304609F06DFF0221A24809F069FFA54297
:1099A000F0D10421A048DFF8A4A2DFF8A492DFF8E8
:1099B000A4829E4E9E4D9F4C09F05AFF9E4807F090
:1099C00097F807F11800002107F00AFAB96B07F1C0
:1099D000280007F005FA07F1280107F1180007F041
:1099E000ABFA07F1280007F0BBF9022007F086FF69
:1099F00007F1180007F084FB8AF80000022007F046
:109A00007DFF00230A229AF800108B4807F080F8A7
:109A1000894807F06DF8F96B07F1280007F0E0F9C5
:109A200007F1280107F1180007F086FA07F128006E
:109A300007F096F9022007F061FF07F1180007F020
:109A40005FFB89F80000022007F058FF00230A227C
:109A500099F80010784807F05BF8774807F048F865
:109A6000396C07F1280007F0BBF907F1280107F16D
:109A7000180007F061FA07F1280007F071F90220D9
:109A800007F03CFF07F1180007F03AFB88F80000E8
:109A9000022007F033FF00230A2298F800106648DE
:109AA00007F036F8644807F023F8796C07F12800CE
:109AB00007F096F907F1280107F1180007F03CFAC2
:109AC00007F1280007F04CF9022007F017FF07F113
:109AD000180007F015FB3070022007F00FFF00237D
:109AE0000A223178544807F013F8534807F000F879
:109AF000B96C07F1280007F073F907F1280107F1A5
:109B0000180007F019FA07F1280007F029F90220D8
:109B100007F0F4FE07F1180007F0F2FA28700220AF
:109B200007F0ECFE00230A2229784348434D06F053
:109B3000EFFF414806F0DCFFF96C07F1280007F061
:109B40004FF907F1280107F1180007F0F5F907F1BF
:109B5000280007F005F9022007F0D0FE07F11800F1
:109B600007F0CEFA2070022007F0C8FE21783248B4
:109B700000230A2206F0CCFF2F4806F0B9FF07F1B8
:109B8000180007F0BDFA2E4B2E4A1B687B607B68DD
:109B9000396DC0F13C004FF47A7404FB003307F1D7
:109BA000280001242B60147007F01AF907F128012E
:109BB00007F1180007F0C0F907F1280007F0D0F806
:109BC000022007F09BFE07F1180007F099FA1E4AE1
:109BD000C3B219460A20137007F004FB07F11800FE
:109BE00007F0BEF807F1080007F0BAF85837BD468D
:109BF000BDE8F08708F0F4FDC4B2204609F0BCFED1
:109C00000D2C3FF495AE0A2C214607F1080005D033
:109C100007F0EEF9012007F071FE89E6012587E6DD
:109C200084990100C09A0100B89A01009415FF1FA1
:109C3000C815FF1F8C15FF1FE809FF1FE414FF1F45
:109C40007818FF1FE214FF1F6107FF1FBA14FF1FE0
:109C50001C15FF1F1F15FF1F30B589B008F000FB52
:109C600000282DDD002420E008F00AFBC5B20D2DF0
:109C70001AD00A2D04A8154916D007F0C5F82946B0
:109C8000684607F01FF9694604A807F0C1F90146C4
:109C90000E4807F049F9684607F062F804A807F093
:109CA0005FF8052007F02AFE013408F0D9FA844253
:109CB000DADB642007F022FE08F0D2FA0028D1DCBB
:109CC000034B01221A7009B030BD00BFC014FF1F42
:109CD0008E14FF1F10B50A4B1C7882B0204607F087
:109CE000F9FDB0FA80F14909204607F0EDFD054A7B
:109CF000054B12680192019A1A6002B010BD00BFB4
:109D00005807FF1F7818FF1FDC14FF1F10B5104CF9
:109D1000104882B0132109F0ABFD2078002107F034
:109D2000D3FD4FF47A7007F0E9FD2078012107F0A8
:109D3000CBFD094A094B12680192019A08481A6042
:109D4000092109F095FD074806F0D2FE02B010BDCA
:109D50006407FF1FC49A01007818FF1FD814FF1F63
:109D6000D89A0100E809FF1F2DE9F843324EDFF8C9
:109D7000EC80324C324D334FDFF8E49007F0D0F9ED
:109D80003146404607F02CF82246294640460BF063
:109D900087F83146384607F023F8224629463846E8
:109DA0000BF07EF8284FDFF8BC803146484607F0BC
:109DB00017F82246294648460BF072F831463846D5
:109DC00007F00EF82246294638460BF069F81F4F77
:109DD000DFF894903146404607F002F822462946C3
:109DE00040460BF05DF83146384606F0F9FF224652
:109DF000294638460BF054F8DFF87080144F484677
:109E000003F0ACFE2246484612490BF049F83146B1
:109E1000404606F0E5FF2246294640460BF040F852
:109E200038460D4906F0DCFF224629463846BDE893
:109E3000F8430BF035B800BF9C9A0100F806FF1FED
:109E4000610D01006C14FF1F9815FF1F3415FF1FD3
:109E50007415FF1F79DB0000E49A0100F414FF1F62
:109E6000B815FF1F2415FF1F4815FF1FC014FF1F43
:109E70002DE9F04FB84BBBB0834600AF5968B748E7
:109E800004F052F8002800F0A781B34BB34859689A
:109E900004F058F807F1200302201C46BB6007F0CD
:109EA0002DFDAD4AAD4952682046132303F0C8FF8B
:109EB00007F1E801AA4ABB6A11F8BC4D97F82400E3
:109EC00093601473107102F10D031A3211F8010F2F
:109ED00003F8010B9342A248F8D1FB6BC361B86849
:109EE00003F04AFE04E008F07BFC012007F006FDC9
:109EF00008F066FC0028F6DC994803F04DFE0028C7
:109F000000F08A81974B4FEAEB7283FB0B3AC2EB6E
:109F1000AA1ABAF1000F3A6040F3C7814FF0000966
:109F2000914CC7F804904D46012322687A61042DB4
:109F30007E6900F2EE8013B1F5E008F051FC08F004
:109F40003FFC0028F9DC0221884808F005FC88481D
:109F500006F0CEFD874809F1FF3905F05DFE42F2BB
:109F60000F7808F02DFCC72808DC2368BB61BB69AB
:109F70009B1B43454FF0010040F2888008F020FC15
:109F8000C82800F086800D217B4809F071FC08F09C
:109F900017FC0146794806F0FBFD784806F0A8FD5D
:109FA0002A21774809F064FC744806F0A1FD0135C8
:109FB000EDB2002309F10109CA45B6DC042D48D8E9
:109FC000684E86FB0B263A68C2EBA616C82202FB37
:109FD00016B606F1070B2BF0070B2268FA61D7F8CB
:109FE0001C80002B00F08A80FFF774FE0221654878
:109FF00008F0B2FB5E4806F07BFD5E4805F00CFE03
:10A00000FFF768FE42F20F7908F0DAFB864208DDBE
:10A0100023683B623B6AC8EB03034B454FF00100EA
:10A0200031D908F0CDFB864202D18BE008F0D8FB95
:10A0300008F0C6FB0028F9DC3021534809F018FC71
:10A040004E4806F055FD0135EDB2052D4FF00003E9
:10A05000C3D102214D4808F07FFB454806F048FD7A
:10A0600028214B4809F004FC444806F041FD3C48D7
:10A0700003F084FD384B3948596803F063FFEC372F
:10A08000BD46BDE8F08F07F039FCBDE707F036FCB0
:10A0900067E7002606E008F0A3FB07F1E803984411
:10A0A00008F8C80C08F08CFB00285FFA86F806F167
:10A0B0000106F0DCB8F1C80F7FF479AF2F4806F045
:10A0C00017FD1221334809F0D3FB7B682B48C833B6
:10A0D0001E467B6006F00CFD0D212F4809F0C8FBE1
:10A0E0003146264806F054FD244806F001FD42465C
:10A0F000B9681B4803F0B8FC01235BE702211B4849
:10A1000008F02AFB1A4806F0F3FC1A4805F084FD13
:10A1100078E728211E48FB6009F0AAFB174806F0E3
:10A12000E7FCFB6846E7FFF7D5FD0221154808F07C
:10A1300013FB0F4806F0DCFC0E4805F06DFDFFF741
:10A14000C9FD0CE7DFF85480EA460023ADEB0B0DA8
:10A15000E946C8F800302CE0FC06FF1FCC15FF1FB5
:10A160004815FF1F1F85EB517818FF1FEC9A01005F
:10A17000D009FF1F4818FF1F149B0100E809FF1FAB
:10A18000249B0100E89A0100F89B0100989B0100C4
:10A19000509B0100F09A0100049B01001815FF1F5D
:10A1A00008F01EFBD8F800305A1C09F80300C8F864
:10A1B000002008F005FB0028F2DCD8F800309E42B1
:10A1C00035D010213B4809F053FB01353A4806F0E1
:10A1D0008FFCEDB2D54638E7384A3949526807F165
:10A1E00020031846BB60132303F02AFE07F1E801A1
:10A1F000344ABB6A11F8BC4D97F82400936014737D
:10A20000107102F10D031A3211F8010F03F8010B5E
:10A2100093422C48F8D160E625212B4809F028FB11
:10A22000254806F065FCEC37BD46BDE8F08F1921E6
:10A23000264809F01DFB7B681F4833441C4606F086
:10A2400057FC0D21224809F013FB21461A4806F05D
:10A250009FFC194806F04CFC32464946194803F069
:10A2600003FC184803F08AFC02211A4808F074FA2B
:10A27000194806F03DFC1721D546184809F0F8FAB0
:10A280000D4806F035FC2C21154809F0F1FA0A4872
:10A2900006F02EFC41F2883007F030FB114B124AD9
:10A2A0001A60EC37BD46BDE8F08F00250F4C7D608D
:10A2B000012385E6E49B0100E809FF1FFC06FF1F60
:10A2C000CC15FF1F4815FF1F2C9C01007C9B010033
:10A2D000049B0100989B0100D009FF1F9C9B01007B
:10A2E000B49B01000CED00E00400FA057818FF1F94
:10A2F00070B5234C234986B002A806F071FD23688F
:10A300000093009E42F20F7508F05AFA38B923689C
:10A310000193019B9B1BAB424FF001002DD908F02C
:10A320004FFA002809DC23E008F05AFAC1B202A86B
:10A3300006F05EFE022007F0E1FA08F041FA00287C
:10A34000F2DC022007F0DAFA02A806F0D9FE0B21AF
:10A3500004460D4809F08CFA21460C4806F018FC1A
:10A360000A4806F0C5FB002C02DD2046FFF780FD01
:10A3700002A806F0F5FC06B070BD07F0BFFAC3E70F
:10A380007818FF1F9C9A0100549C0100E809FF1FE8
:10A3900008B508F015FA002837D008F021FAC0B245
:10A3A00046281DD0542814D11B211A4809F060FA00
:10A3B000194806F09DFB022007F0A0FA1521174866
:10A3C00009F056FA144806F093FBBDE80840FFF781
:10A3D000A5BA09F0D1FA1048BDE8084006F088BBDC
:10A3E0001E210F4809F044FA0B4806F081FB0220B9
:10A3F00007F084FA1E210B4809F03AFA064806F0E5
:10A4000077FBBDE80840FFF773BF012007F076FA3D
:10A41000C3E700BF989C0100E809FF1F609C010092
:10A42000B49C0100789C010000B587B0274902A8C0
:10A4300006F0D6FC08F0C4F900281FDD244A254B9D
:10A4400012680192019A1A6008F0CAF9C0B2232872
:10A4500024D008F0B5F900284FF002000EDD07F017
:10A460004DFA08F0BDF9C0B223280DD009F084FAE6
:10A4700008F0A6F900284FF00200F0DC02A806F070
:10A480006FFC07B05DF804FB1121134809F0F0F9E7
:10A49000124806F02DFBFFF77BFFDAE71121104889
:10A4A00009F0E6F90D4806F023FB02E0012007F071
:10A4B00025FA08F085F90028F8D0FFF769FF02A80F
:10A4C00006F04EFC07B05DF804FB00BF9C9A01004B
:10A4D0007818FF1FD814FF1FE89C0100E809FF1F30
:10A4E000D49C010030B5614D614B2A78614953F825
:10A4F000222089B06846132303F0A2FC08AA5E4814
:10A50000029B12F8144D9DF80410836004730171CE
:10A5100000F10D031A3012F8011F03F8011B8342EA
:10A52000554CF8D1079BE361684603F025FB2046B4
:10A5300003F032FB002874D029784C4D092979D9D1
:10A5400000230A224C484D4C06F0E2FA4C494A4896
:10A55000012203F089FA2178092972D900230A22FD
:10A560004548484C06F0D4FA45494348012203F0D7
:10A570007BFA217809296BD900230A223E48424CF4
:10A5800006F0C6FA41493C48012203F06DFA2178F1
:10A59000092964D900230A2237483D4C06F0B8FA4D
:10A5A0003C493548012203F05FFA217809293AD95C
:10A5B00000230A22304806F0ABFA012233492E4824
:10A5C00003F052FA344BD3ED007AF8EEE77AB2EEAC
:10A5D000047AC7EE876A16EE900A0AF0EDF841ECAD
:10A5E000100B0121244806F0DBFA012227492248FA
:10A5F00003F03AFA294B18680AF0DEF841EC100B28
:10A6000001211D4806F0CCFA1B4806F071FA1A48E1
:10A6100003F0B4FA1421224809F02AF9214806F07F
:10A6200067FA09B030BD20491348012203F01CFA33
:10A630002178BDE71C492046012203F015FA29784C
:10A640007EE719490C48012203F00EFA217885E7CC
:10A6500015490948012203F007FA21788CE71249CD
:10A660000548012203F000FA217893E71415FF1F33
:10A67000A807FF1FCC15FF1F4815FF1F8D15FF1FD3
:10A680007C990100D014FF1FC915FF1F8499010098
:10A690008D14FF1F88990100B415FF1F8414FF1F3C
:10A6A000FC9C0100E809FF1F7899010030B51221D8
:10A6B00089B05348534D09F0DBF8534806F018FAB7
:10A6C0002A78524B524953F822206846132303F04C
:10A6D000B7FB08AA4F48029B12F8144D9DF80410CE
:10A6E00083600473017100F10D031A3012F8011F29
:10A6F00003F8011B8342474CF8D1079BE36168468E
:10A7000003F03AFA204603F047FA00285AD0297895
:10A710003C4D09295FD900230A223E483E4C06F0F1
:10A72000F7F93E493B48012203F09EF921780929B7
:10A7300058D900230A223748394C06F0E9F937493D
:10A740003448012203F090F92178092951D90023D6
:10A750000A223048334C06F0DBF933492D480122F8
:10A7600003F082F9217809292ED900230A222948E9
:10A7700006F0CEF901222D49264803F075F9022290
:10A780002B49244803F070F901222749214803F09E
:10A790006BF9284BD3ED007AF8EEE77AB2EE047A43
:10A7A000C7EE876A16EE900A0AF006F841EC100B25
:10A7B0000121184806F0F4F9164806F099F91548F1
:10A7C00003F0DCF909B030BD1B491248012203F047
:10A7D0004BF92178C9E718492046012203F044F9D2
:10A7E000297898E714490B48012203F03DF92178B4
:10A7F0009FE711490748012203F036F92178A6E7BF
:10A80000149D01001415FF1FE809FF1FF407FF1F27
:10A81000CC15FF1F4815FF1F8D15FF1F7C990100E8
:10A82000D014FF1FC915FF1F8499010088990100EA
:10A83000289D0100B415FF1F7899010070B5112102
:10A840008CB0A24809F014F8A14806F051F9684606
:10A85000002106F0C5FA9F4B1B78002B40F0FF80CB
:10A860009D4B1B7823B99D4B1B78002B40F0E28059
:10A870009B4B04AD93ED000A0221284606F00AFB2B
:10A880002946684606F058FB284606F069FA9549BD
:10A89000684606F09FFB944E944B3278944953F8E7
:10A8A00022202846132303F0CBFA0CAA9148069BDA
:10A8B00012F8144D9DF8141083600473017100F1B7
:10A8C0000D031A3012F8011F03F8011B8342894C53
:10A8D000F8D10B9BE361284603F04EF9204603F0C4
:10A8E0005BF9002800F0A18031787F4D092940F202
:10A8F000C38000230A227F487F4C06F009F97F4974
:10A900007C48012203F0B0F82178092940F2BB808D
:10A9100000230A2277487A4C06F0FAF877497548FE
:10A92000012203F0A1F82178092940F2B380002325
:10A930000A227048734C06F0EBF8012272496D4808
:10A9400003F092F8714BD3ED007AF8EEE77AB2EEAD
:10A95000047AC7EE876A16EE900A09F02DFF41ECE3
:10A96000100B0121634806F01BF967496148012279
:10A9700003F07AF82178092940F2938000230A2213
:10A980005C48634C06F0C4F862495A48012203F05F
:10A990006BF82178092940F28B8000230A22554860
:10A9A0005D4C06F0B5F801225749524803F05CF8B7
:10A9B0005A4BD3ED007AF8EEE77AB2EE047AC7EE9E
:10A9C000876A16EE900A09F0F7FE41EC100B0121A0
:10A9D000484806F0E5F84C494648012203F044F89F
:10A9E000217809296BD900230A2242484C4C06F0F1
:10A9F0008FF848493F48012203F036F821780929A9
:10AA000033D900230A223B4806F082F8394806F081
:10AA10006FF801223C49374803F026F8694635486B
:10AA200006F040F8334803F0A9F8684606F098F9B4
:10AA30000CB070BD3B4B1B78002B3FF419AF284B7B
:10AA400004AD93ED000A2846022106F023FA2946B8
:10AA5000684606F071FA284606F082F91BE732498B
:10AA6000684606F061FA04AD15E730492148012235
:10AA700002F0FAFF2178C4E72C492046012202F0B7
:10AA8000F3FF297835E729491A48012202F0ECFF43
:10AA900021783DE725491748012202F0E5FF21789A
:10AAA00045E722491348012202F0DEFF217865E7DD
:10AAB0001E491048012202F0D7FF21786DE71B499B
:10AAC0000C48012202F0D0FF21788CE72C9D010078
:10AAD000E809FF1F1D07FF1F3708FF1FA915FF1FEC
:10AAE0001807FF1F409D01001415FF1F2007FF1FBF
:10AAF000CC15FF1F4815FF1F8D15FF1F7C99010006
:10AB0000D014FF1F3608FF1F849901005C07FF1F48
:10AB10002C08FF1F88990100E407FF1F0C07FF1F87
:10AB2000A007FF1FBB14FF1F7415FF1F78990100BA
:10AB30002DE9F04F2DED028BDFF8A0A3D248DFF80E
:10AB4000A093DFF8A083D14FD14E91B00C2108F033
:10AB50008FFEDAF80010CF4806F01AF8CD4805F05D
:10AB6000C7FF0421CC4808F083FED9F80010C9487B
:10AB700006F00EF8C74805F0BBFF0621C74808F0ED
:10AB800077FE00230A2298F80010C24805F0C0FFA3
:10AB90000121C34808F06CFE00230A223978BD4821
:10ABA00005F0B6FFBB4805F0A3FF0421BD4808F03F
:10ABB0005FFE3168B74805F0EBFFB64805F098FF37
:10ABC0000621B64808F054FEB74BB24819780A225D
:10ABD000002305F09DFF0121B14808F049FEB34B69
:10ABE000AC4819780A22002305F092FFA94805F025
:10ABF0007FFF6846AE4906F0F3F8AE4B1B78002B9A
:10AC000040F0A082AC4BDFEDAD7A93ED000AB4EEDC
:10AC1000E70AF1EE10FA40F2CE8108AC204602219C
:10AC200006F038F92146684606F086F9204606F017
:10AC300097F80E21A24808F01BFE6946954805F0DA
:10AC400031FF944805F054FF994904A806F0C8F86C
:10AC50009C4904A806F0BEF99B4B1978092940F2DB
:10AC6000B582204606F0EEF8214604A806F0AEF9BB
:10AC7000964D204606F074F8954904A806F0AAF906
:10AC80002978092940F29C820A22204606F0EEF833
:10AC9000214604A806F09AF9204606F061F88C498E
:10ACA00004A806F097F98B4B1978092940F28182A4
:10ACB0000A22204606F0DAF8214604A806F086F9B2
:10ACC000DFF8E4B1204606F04BF8834904A806F00B
:10ACD00081F99BF80010092940F264820A2220467B
:10ACE00006F0C4F8214604A806F070F9DFF8BCB1FC
:10ACF000204606F035F86A4904A806F06BF99BF87F
:10AD00000010092940F247820A22204606F0AEF8D8
:10AD1000214604A806F05AF9204606F021F86E49AB
:10AD2000DFF8C0B104A806F055F9D6ED007AF8EEC8
:10AD3000E77AB2EE047A87EE870A0121204606F010
:10AD4000A9F8214604A806F041F9204606F008F8C3
:10AD5000614904A806F03EF998F80010092940F26C
:10AD600013820A22204606F081F8214604A806F044
:10AD70002DF9204605F0F4FF4949DFF810B104A889
:10AD800006F028F93978092940F2F7810A2220468D
:10AD900006F06CF8214604A806F018F9204605F0E4
:10ADA000DFFF4D49DFF840B104A806F013F9D9EDF3
:10ADB000007AF8EEE77AB2EE047A87EE870A01218C
:10ADC000204606F067F8214604A806F0FFF8204662
:10ADD00005F0C6FF404904A806F0FCF89BF80010F7
:10ADE000092940F2C3810A22204606F03FF8214695
:10ADF00004A806F0EBF8DFF8F4B0204605F0B0FF49
:10AE0000274904A806F0E6F89BF80010092940F24B
:10AE1000A6810A22204606F029F8214604A806F059
:10AE2000D5F8DFF8CCB0204605F09AFF1C4904A8FD
:10AE300006F0D0F89BF80010092940F289810A2217
:10AE4000204606F013F8214604A806F0BFF8204675
:10AE500005F086FF204904A806F0BCF8DAED007A78
:10AE6000F8EEE77AB2EE047A87EE870A01212046EF
:10AE700006F010F8214604A806F0A8F8204605F0D0
:10AE80006FFF154904A835E0449D01001C07FF1F12
:10AE90003C08FF1FE809FF1F549D01008498010032
:10AEA000889901005C9D01003508FF1F3408FF1FD1
:10AEB0009C9A01001F07FF1F3808FF1F0AD7A33CF9
:10AEC000649D010074990100D014FF1F1415FF1F29
:10AED0007C9901008D15FF1F84990100B415FF1F97
:10AEE0000807FF1F5407FF1FC915FF1F8D14FF1F01
:10AEF0001D15FF1F06F06EF8BB49684606F0B4F852
:10AF0000B0B9BA4B1B7823B9B94B1B78002B40F072
:10AF100064816946204605F077FFB649204606F071
:10AF20007FF80146684605F0FFFF204605F018FF50
:10AF3000694604A806F04AF804A9AF4805F0F4FFF2
:10AF40001221AE4808F094FCAD4805F0D1FDAD4BA0
:10AF50002A78AD4953F822202046132302F070FFCF
:10AF600010AAAA480A9B12F814ED9DF824108360D9
:10AF700080F80CE0017100F10D031A3012F8011F86
:10AF800003F8011B8342DFF884B2F7D10F9BCBF8A3
:10AF90001C30204602F0F0FD584602F0FDFDA0B93D
:10AFA00004A805F0DDFE684605F0DAFE11B0BDEC40
:10AFB000028BBDE8F08FDFED967A08ACB0EE670A41
:10AFC00020460221C3ED007A2AE69249924C0122E2
:10AFD000584602F049FD2978092940F25D81002395
:10AFE0000A228A488D4C05F093FD8D49874801223D
:10AFF00002F03AFD2178092940F2478100230A2214
:10B000008248884C05F084FD85498048012202F081
:10B010002BFD2178092940F2318100230A227B4847
:10B02000814C05F075FD01227A49784802F01CFD3B
:10B03000DAED007AF8EEE77AB2EE048A87EE887AE3
:10B0400017EE100A09F0B8FB41EC100B01216F4814
:10B0500005F0A6FD01226F496C4802F005FDD9ED0F
:10B06000007AF8EEE77A87EE887A17EE100A09F090
:10B07000A3FB41EC100B0121644805F091FD6549EB
:10B080006248012202F0F0FC98F80010092940F211
:10B09000EE8000230A225D48644C05F039FD6449C6
:10B0A0005A48012202F0E0FC3978092940F2D880A0
:10B0B00000230A2255485F4C05F02AFD012255491C
:10B0C000524802F0D1FCD6ED007AF8EEE77AB2EE03
:10B0D000047AC7EE876A16EE900A09F06DFB41EC20
:10B0E000100B0121494805F05BFD4A494748012200
:10B0F00002F0BAFC2178092940F2AB8000230A2231
:10B1000042484D4C05F004FD49494048012202F0F7
:10B11000ABFC2178092940F2958000230A223B48A4
:10B1200005F0F6FC394805F0E3FC012239493748BF
:10B1300002F09AFC6946354805F0B4FC334802F049
:10B140001DFD2DE72849684605F0EEFE08AC70E5C8
:10B150003A4904A805F03EFF9BF800106FE6374916
:10B1600004A805F037FF9BF8001052E6334904A805
:10B1700005F030FF9BF8001035E6304904A805F0D3
:10B1800029FF9BF8001001E62C4904A805F022FFD6
:10B190009BF80010E5E5294904A805F01BFF9BF882
:10B1A0000010B1E5254904A805F014FF9BF8001034
:10B1B00094E5224904A805F00DFF184B197877E5AE
:10B1C0001E4904A805F006FF29785DE51B4904A87F
:10B1D00005F000FF134B197843E5194B1B78002B42
:10B1E0007FF4A6AE95E600BF7415FF1F6007FF1F32
:10B1F0009414FF1F409D01002415FF1F749D010042
:10B20000E809FF1F6C07FF1FCC15FF1F4815FF1F24
:10B2100000000000849901001415FF1F8D15FF1F09
:10B220007C990100D014FF1F5407FF1F1C07FF1F4C
:10B23000889901003508FF1F3408FF1F7899010025
:10B24000B914FF1F18491948012202F00DFC21789A
:10B2500063E715491548012202F006FC21784DE705
:10B2600011491248012202F0FFFB217820E70E4924
:10B270000E48012202F0F8FB21780AE70A490B4840
:10B28000012202F0F1FB2178C7E6074907480122B5
:10B2900002F0EAFB2178B1E603495846012202F0A8
:10B2A000E3FB21789BE600BF789901004815FF1F5A
:10B2B000F8B5774CD02301250021204684F83B3097
:10B2C00084F85E5084F85D5004F0A2FD29462046C3
:10B2D00004F00AFF072268212B46204604F08EFF67
:10B2E00094F8381094F83920914280F0AE806318B9
:10B2F000684E1B7EC3F3021003F00F054B1CDBB23C
:10B3000000EB800005EB40009A42307084F8383042
:10B3100040F2AD802344604E1B7E180903F00F05F8
:10B320008B1CDBB200EB800005EB400093423070D9
:10B3300084F8383080F08F80E018CB1C017EC1F398
:10B340000110DBB200EB800001F00F0184F838300F
:10B3500001EB400151489A42017040F28F80E118A0
:10B360004F4F097E4A480D0901F00F06591CC9B21A
:10B3700005EB850506EB450591423D7084F83810D4
:10B380006FD20144474F097E0D0901F00F06991C49
:10B39000C9B205EB850506EB450591423D7080F885
:10B3A000381070D20144404F097E0D0901F00F069C
:10B3B000D91CC9B205EB850506EB450591423D70E8
:10B3C00080F8381058D201440433097E80F83830B0
:10B3D0000A0902EB820201F00F0101EB4202D2B234
:10B3E0002B4E324FD0230125112130463A7084F87C
:10B3F0003B3084F85E5084F85D5004F009FD294626
:10B40000304604F071FE2B4602223046682104F0DB
:10B41000F5FE94F8383094F83920934208D259193F
:10B42000C9B28A428ABF023386F8381086F83830AB
:10B430001F4A204BD2ED007AB2EE047A67EE877A8B
:10B44000FDEEE77AC3ED007AF8BD1249124B5520A4
:10B45000A52208701A701149114B2D20A5220870E1
:10B460001A701049104BA5220A701A70B8E70A49E1
:10B47000A52008702D216DE7A522B1E70849094AEA
:10B48000A5230B701370084BA5221A70A8E700BF04
:10B49000B008FF1F1D15FF1F8D14FF1FC915FF1FCB
:10B4A000AE15FF1F8D15FF1F1415FF1FD014FF1FB2
:10B4B0008414FF1F9015FF1F2DE9F043A3B00DE08A
:10B4C00006F0DEFEC4B2214600230A229F4805F0A2
:10B4D0001FFB9E4805F00CFB0A2C0AD006F0C0FEAC
:10B4E0000028EDDC9A4C2378002B31D123B0BDE845
:10B4F000F083142006F002FA06F0C2FEC5B222461E
:10B5000029460023914805F003FB232DE6D19149FC
:10B51000914805F019FD052006F0F0F9FEF79CFBB7
:10B520008E4B8F4A8F491D7814688F480A780DB961
:10B5300001251D700194019B0360002ACED08B4A27
:10B540001368002083420870C8DD013B1360C5E723
:10B550008749DFF80482DFF8689202A805F040FC12
:10B5600002A91EA805F050FC41461EA805F050FD9A
:10B57000014602A805F0D8FC1EA805F0F1FB062143
:10B580007C4808F075F902A9704805F08BFA6F48FD
:10B5900005F0AEFA02A9784805F0C6FC774B99F899
:10B5A000002077491A7006A80026267005F018FCBE
:10B5B000D8F80840002C00F02C823746354631463A
:10B5C00034460CE005F074FD03782C2B61D0032D7C
:10B5D0000FD0D8F8083001349C42214614D2022DF5
:10B5E0005D48EFD105F064FD03782C2B07F10107CE
:10B5F00052D1D8F808301C4601349C4207F1FF377D
:10B600004FF003052146EAD30F215E4808F030F9D8
:10B6100039464E4805F0BCFA4C4805F069FA0F214E
:10B62000594808F025F93146484805F0B1FA47482D
:10B6300005F05EFA042F00F0A081052F00F0C28013
:10B6400016215248524C534E08F012F93F4805F06B
:10B650004FFAD4ED007A504BDFED506A93ED007A4B
:10B66000B4EE667AF1EE10FA1DD14D4A4D4F1278C4
:10B670004D484E4D99F80010C3ED007A00232B6021
:10B68000397002704A4B0AB91E2900D901221A707A
:10B6900019E00135022D9AD1002E08BF2646D8F8B0
:10B6A0000830022597E777EE676AB0EE006AF4EE9D
:10B6B000C66AF1EE10FA43DB3C4D95ED007A77EE69
:10B6C000C77AC3ED007A0E213A4808F0D1F8306805
:10B6D00009F072F841EC100B02211C4805F060FAE9
:10B6E0001A4805F005FA0E21334808F0C1F8286819
:10B6F00009F062F841EC100B0221144805F050FAF1
:10B70000124805F0F5F911212C4808F0B1F820682D
:10B7100009F052F841EC100B02210C4805F040FAF8
:10B720000A4805F0E5F9FDF7BFFBFDF7C3F906A8E8
:10B7300005F016FB02A805F013FB23B0BDE8F0836B
:10B7400077EEC77A194DC5ED007ABCE7E809FF1F0F
:10B750008E14FF1F889D0100C014FF1F0C15FF1FD2
:10B760007818FF1FBC14FF1F1015FF1F7015FF1F57
:10B770008C9D0100909D01003415FF1F8014FF1F58
:10B780009C9A0100989D0100A89D0100B89D0100B0
:10B790003008FF1F3808FF1F0407FF1FE1FAC742E8
:10B7A000C915FF1FEC07FF1FDC07FF1F1807FF1F4E
:10B7B0003708FF1FE09D0100F09D0100009E010081
:10B7C0008D14FF1FF51C2946A44805F071FC037871
:10B7D0002E2B7FF435AF711CA04805F069FC017871
:10B7E0001AA805F06FFB1AA91EA805F00DFBB11CE5
:10B7F0009A4805F05DFC017816A805F063FB16A9D0
:10B800001EA805F005FC29460446944805F050FCA6
:10B81000017812A805F056FB12A9204605F0F8FBA6
:10B82000311D04468D4805F043FC01780EA805F053
:10B8300049FB0EA9204605F0EBFB711D0446874825
:10B8400005F036FC01780AA805F03CFB0AA9204661
:10B8500005F0DEFB014606A805F066FB0AA805F028
:10B860007FFA0EA805F07CFA12A805F079FA16A85E
:10B8700005F076FA1EA805F073FA1AA805F070FA1A
:10B88000774D784A7849794E002313700B70FFF793
:10B890000FFD2A7833789A4266D0002A54D199F85D
:10B8A00000101E2902D87249012008701BB1013B0B
:10B8B0009A4200F0CC8006A805F028FC6D4C6E483A
:10B8C00084ED000A0D2107F0D3FF206808F074FF13
:10B8D00041EC100B0221694805F062F9674805F058
:10B8E00007F9674BDFED677A93ED007AB4EE677A7C
:10B8F000F1EE10FA15D12A7831786348D4ED007A48
:10B90000624D634E0270C3ED007A002099F800305A
:10B910002B709142306000F093805E4B01221A70D0
:10B9200099E6D4ED007A37EE676AF0EE006AB4EE7D
:10B93000E66AF1EE10FA60DB554E96ED007A37EECE
:10B94000C77A83ED007A86E6172AAFD199F80010FE
:10B950001E391D29AAD8504901200870002BA6D1F4
:10B960004E4B01221A70A6E799F800101E294AD9F9
:10B97000002AA0D0172AE9D099E7B41C21463748FD
:10B9800005F096FB03782E2B7FF45AAE711C3348DA
:10B9900005F08EFB01781AA805F094FA1AA91EA8E2
:10B9A00005F032FA21462D4805F082FB017816A8F1
:10B9B00005F088FA16A91EA805F02AFBF11C04461A
:10B9C000264805F075FB017812A805F07BFA12A94C
:10B9D000204605F01DFB311D0446204805F068FB9C
:10B9E00001780EA805F06EFA0EA9204605F010FBAE
:10B9F000014606A805F098FA33E737EEC77A244ED9
:10BA000086ED007A27E6264901200870002AB1D188
:10BA100049E70F21234807F02BFF2146174805F07F
:10BA2000B7F8164805F064F80F211F4807F020FF0B
:10BA30002146124805F0ACF8104805F059F8FFE52A
:10BA40001E2B3FF66AAF134B00221A7003E699F8DB
:10BA500000301E3B1D2B83D92DE700BFC014FF1FF4
:10BA6000C915FF1F1D07FF1F1F07FF1F6107FF1FCE
:10BA7000A915FF1F3008FF1FD09D0100E809FF1F17
:10BA8000E007FF1FE1FAC7426807FF1FE507FF1F36
:10BA90003808FF1F6007FF1FBB14FF1FB914FF1FEB
:10BAA0009414FF1F989D0100A89D0100F0B5944DCE
:10BAB0002B7883B0002B00F09A80012B00F05C8182
:10BAC0000F21904807F0D4FE22218F4807F0D0FEC6
:10BAD0008E4805F00DF8002634462D78C5B18C4F00
:10BAE00039788C4C8C4DA4FB0132930803EB830313
:10BAF000CB1A13F0FF0F2B7804D1002B00F0DE805F
:10BB000003B0F0BD002BFBD000232B7003B0F0BDC1
:10BB1000824F83480F2107F0ABFE39687B4805F060
:10BB200037F87A4804F0E4FFD7ED007AF8EEE77AC8
:10BB3000B2EE047AC7EE876A16EE900A08F03CFE71
:10BB400041EC100B0221714805F02AF802217548DA
:10BB500007F08EFE6D4804F0CBFF734B9C4200F063
:10BB60007E8140F6FB139C42704B00F0BA801D7042
:10BB7000002EB4D06E4B1A683B68002A00F07F811B
:10BB800040F6BA1103F2DE30884200F2A281694920
:10BB900008688342C0F204825D4F397866480468C1
:10BBA000A34202DD9A4240F32482644A1268002ACA
:10BBB00040F0C181624A1068984209DD614E624DD1
:10BBC000624C63483678136001222E702170027037
:10BBD000604A1068984284DA5A4E5F4D5F4C5C4868
:10BBE0003678136001232E702170037079E75C486A
:10BBF0005C4E04F01DF85C4809F058F907EE900A15
:10BC0000B8EEE77AF2EE047AC7EE276A044616EE3B
:10BC1000900A08F0D1FD41EC100B02213B4804F0E2
:10BC2000BFFF3A4804F064FF3378002B00F007812F
:10BC30004FF47A7005F062FE494803F0F9FF33785B
:10BC4000002B00F00481484809F030F907EE900A13
:10BC5000B8EEE77AF2EE047AC7EE276A064616EEE9
:10BC6000900A08F0A9FD41EC100B0221274804F0CE
:10BC700097FF264804F03CFFB4427FF421AF002C2C
:10BC80003FF41EAF04F2DE3240F6B9139A4200F2DE
:10BC9000138136490B68A3F132029442C0F2388115
:10BCA00003F13202944200F33381314B1A78002AB7
:10BCB00000F0AA8100260C601E70FEE0FCF724FE56
:10BCC0003B78A4FB0324A40804EB84041C1B14F09D
:10BCD000FF0F4FF001032B703FF412AF00232B70C6
:10BCE00014E71A782348022A18BF02224FF01501E0
:10BCF00018BF1A7007F0BCFD044804F0F9FE37E7DE
:10BD00001007FF1F449E0100549E0100E809FF1F19
:10BD10008D14FF1FCDCCCCCCAD15FF1FB415FF1F6C
:10BD2000789E0100B49A010019FCFFFF8415FF1FE3
:10BD30000815FF1F5C07FF1F0C07FF1FF014FF1FF4
:10BD40000807FF1FC915FF1F5407FF1F1C07FF1F10
:10BD5000E814FF1F3C08FF1F3508FF1F3408FF1FB2
:10BD60004C18FF1F0615FF1F5018FF1FEC14FF1F74
:10BD70006D15FF1F9C9E01004FF47A7005F0BEFD0B
:10BD8000A748A84E03F054FFA74809F08FF807EE24
:10BD9000900AB8EEE77AF2EE047AC7EE276A044614
:10BDA00016EE900A08F008FD41EC100B02219F48A6
:10BDB00004F0F6FE9D4804F09BFE3378002B00F063
:10BDC0009F804FF47A7005F099FD954803F030FF9D
:10BDD000954809F06BF807EE900AB8EEE77AF2EEB4
:10BDE000047AC7EE276A074616EE900A08F0E4FCCC
:10BDF00041EC100B02218D4804F0D2FE8B4804F078
:10BE000077FE3378002B74D0BC427FF459AE002CFF
:10BE10003FF456AE04F2DE3240F6BA139A424FF0C7
:10BE200000064AD82F2182482E7007F021FD7F4856
:10BE300004F05EFE7F4A804B14601C603DE006F01B
:10BE40000FFA00287FF7F4AEFFF736FBF0E606F0B6
:10BE500007FA00287FF7F7AEFFF72EFBF3E6774BE4
:10BE600077481A78012A18BF01224FF0120118BF33
:10BE70001A7007F0FDFC6D4804F03AFE78E640F6D3
:10BE8000BA1203F2DE31914223D86E4A11688B4216
:10BE9000C0F296806C4F39786C4A106883427FF705
:10BEA00084AE6B4E6B4D6C4C6C483678136001223F
:10BEB0002E702170027078E600260F21684807F086
:10BEC000D7FC2146594804F063FE584804F010FEA0
:10BED00003E6644B1B68002B7FF401AE3B685A4FAE
:10BEE00003F2DE3040F6BA12904239783FF6F9ADEF
:10BEF00060E606F0B5F9002886DDFFF7DDFA83E796
:10BF000006F0AEF900287FF75CAFFFF7D5FA58E7E7
:10BF1000554802689E1AB44230DA544B323201213D
:10BF2000026019700026C8E74E4A474F12683978F8
:10BF3000002A3FF43FAE4E4804689C420BDD9A4213
:10BF40004CDB434E4B4C03604B4D36784B482670D0
:10BF50000124297004704A4804689C42BFF6C1ADB0
:10BF60009A423FF7BEAD3A4E464D474C434A36786B
:10BF7000036001232E7021701370B2E513449C42BC
:10BF80003A4BCBDC1E78002EC8D0404B404A1B6891
:10BF90000193019E166032230C60036000268CE73B
:10BFA0009A4220DB2A48284F90F800E0394D3A4C5D
:10BFB0002A480B60397885F800E021700670EDE5BD
:10BFC0002349214F334D344C244891F800E039780F
:10BFD000136085F800E0217006705DE7284802686C
:10BFE0009A42C0DB7DE5194802689A429CDA164FF6
:10BFF0003978174E174D184C184A367803600120CF
:10C000002E7021701070D0E5204B214A1B680093E0
:10C01000084B00980C6010601C6001264DE700BFC3
:10C020004C18FF1F0615FF1F5018FF1FE809FF1FC0
:10C03000149E0100B415FF1FEC14FF1F8415FF1F91
:10C04000889E01005C07FF1F8D14FF1F0C07FF1F58
:10C05000C915FF1FE407FF1FA007FF1F8C14FF1F58
:10C06000449E0100F014FF1F1407FF1F6D15FF1FF2
:10C070000807FF1F5407FF1F1C07FF1FE814FF1FBF
:10C080003C08FF1F3508FF1F3408FF1F7818FF1FEB
:10C090008815FF1F3608FF1F2C08FF1F2DE9F047EA
:10C0A000A94DAA4CAA4E86B001211E2005F020FC05
:10C0B0002878012105F01CFC2078012105F018FCEE
:10C0C0000221192005F014FC2878A24D012105F069
:10C0D000FBFB2078012105F0F7FB01211E2005F074
:10C0E000F3FB9D4804F052FA9C4803F0A5FE05209E
:10C0F00005F004FC43F2D40006F0DEF9052005F05B
:10C10000FDFB192005F0E6FB01280BBF00230123EE
:10C1100043F2D40040F212402B7005F01DFF0520C1
:10C1200005F0ECFB46F2A81005F0CAFC052005F06E
:10C13000E5FBFDF721FA0C21894807F099FB8948B6
:10C1400004F0D6FC2421884807F092FB854804F0CF
:10C15000CFFC0A2005F02CF812210446834807F092
:10C1600087FB214600230A227E4804F0D1FC7D484B
:10C1700004F0BEFC172C00F2CE807D4834701C21E8
:10C1800007F076FB774804F0B3FC2321794807F0E9
:10C190006FFB2B781D21002B00F0CF80764807F035
:10C1A00067FB704804F0A4FCDFF83092DFF83082BF
:10C1B000724C734D734FDFF82CA2FFF779F8FCF740
:10C1C000D3FDD9F80010674804F0E2FC654804F09C
:10C1D0008FFCD9F80010634804F0DAFC614804F0E1
:10C1E00087FCD8F8000008F0E7FA41EC100B0221B8
:10C1F0005C4804F0D5FC5B4804F07AFC624B18689C
:10C2000008F0DAFA41EC100B0221564804F0C8FCA1
:10C21000544804F06DFCFCF799FF24215B4807F0BB
:10C2200027FB504804F064FC0721594807F020FB25
:10C2300000230A2221784B4804F06AFC0221554869
:10C2400007F016FB00230A222978464804F060FC18
:10C25000444804F04DFC05214F4807F009FB00233A
:10C260000A2239783F4804F053FC0221494807F07C
:10C27000FFFA00230A229AF800103A4804F048FC1A
:10C28000384804F035FC0621444807F0F1FA444BE5
:10C29000344819780A22002304F03AFC02213D4870
:10C2A00007F0E6FA3F4B2F4819780A22002304F0E2
:10C2B0002FFC2C4804F01CFC2A782378934200F0D1
:10C2C0006581FCF775FE384A33781278374E9A420A
:10C2D00000F09B81364B374A374901201870002304
:10C2E000137022780B70354B1B7893427CD1344904
:10C2F0003A780978914277D1324A1278002A40F090
:10C300009181314909781E2900F28C812F483049EA
:10C3100002700A707AE031780A2004F063FF192174
:10C320002C4807F0A5FA31780E4800230A2204F0C1
:10C33000EFFB0C4804F0DCFB27E7274807F098FAEE
:10C34000084804F0D5FB2FE7A407FF1F6407FF1F71
:10C350006107FF1F0615FF1F8809FF1FB008FF1F99
:10C36000B49E0100E809FF1FC49E0100EC9E01007D
:10C37000009F01003C9F0100609F01001415FF1FFA
:10C380006C15FF1F8D15FF1F0407FF1FA09F0100E5
:10C39000C89F0100C09A0100D09F0100D89F0100F2
:10C3A000D014FF1FAB15FF1FC915FF1F8D14FF1FF2
:10C3B0006007FF1F9414FF1FB914FF1FD114FF1F44
:10C3C0007D14FF1FDC07FF1FEC07FF1F3708FF1F4F
:10C3D000A915FF1F209F0100809F01000C07FF1F70
:10C3E0001807FF1F1E15FF1FFCF7F0FBA84B1B785B
:10C3F0001BB932781E2A40F20081A64AA648A749F6
:10C40000237801271770002202700A702A789A4256
:10C4100004D0FCF7E7FFA24B22781A701921A1483B
:10C4200007F026FA4FF47A7005F068FAFE219E486C
:10C4300001F05AFC0546002840F0898016219B48EF
:10C440009B4C07F015FA9B4804F052FB27219A48B1
:10C45000257007F00DFA974804F04AFB1821974819
:10C4600007F006FA934804F043FB1921944807F0BB
:10C47000FFF9904804F03CFB4321924807F0F8F99B
:10C480008C4804F035FB2378002B71D11C218E4899
:10C490008E4D8F4C07F0ECF9864804F029FB4FF4E1
:10C4A0007A7005F02BFA0A218A4807F0E1F94FF477
:10C4B0007A7005F023FA2521874807F0D9F97D48DD
:10C4C00004F016FBFFF7F2FA1F21844807F0D0F9B9
:10C4D000784804F00DFB642005F010FA287801215B
:10C4E00005F006FA28787E4D012105F0EDF9236864
:10C4F0000393DDF80CE023680293029F794A2368D6
:10C5000001937949337879481370794A0B70C0F8F0
:10C5100000E0019B774978482F60136003F048FBE7
:10C5200004E006F05DF90A2005F0E8F906F048F9A4
:10C530000028F6DC236805930598236804936F4967
:10C540006F4B049A08601A6006B0BDE8F087282196
:10C550006C48574C07F08CF9564804F0C9FA01238F
:10C560004FF47A70237005F0C9F92378002B8DD031
:10C57000FCF78AFE0E21644807F07AF94D4804F072
:10C58000B7FA4FF47A7005F0B9F97FE79AF800101E
:10C590003B78994214D0013B994211D0FCF708FD39
:10C5A0003B4A33781278594E9A426DD0584B594ACB
:10C5B000594901201870002313700B70227892E6FD
:10C5C000564933780978994252D05549DFED557A6A
:10C5D00091ED007A4E4BDFF840A1DFF83891B4EED0
:10C5E000677A00260121F1EE10FA19708AF80060CE
:10C5F00089F8006034D0454E75E626482649274A1A
:10C6000003700B701370237800E733781E2B3FF60E
:10C6100061AE404A3E4840490023137003700B70DE
:10C62000227860E698ED007ADFED3E7A194ADFF86D
:10C630006890DFF86880B4EE677A00270121F1EE98
:10C6400010FA117089F8007088F800707FF4DEAE7F
:10C65000FCF744FB89F8007088F800702378D5E671
:10C66000FCF72EFD8AF8006089F800602278C2E7A6
:10C670002D4B1B781D2BA8D82549274B234E002076
:10C680000870012119702EE633781E2BC1D98DE771
:10C69000C915FF1F3708FF1FA915FF1FBB14FF1F78
:10C6A000AC15FF1FE09F0100CC15FF1FFC9F010090
:10C6B000B814FF1FE809FF1F14A001003CA00100EF
:10C6C00058A0010074A00100F4A001005807FF1F4A
:10C6D0007818FF1F14A1010020A1010048A101004A
:10C6E0008815FF1FAA15FF1F8014FF1FDC14FF1FF2
:10C6F0006815FF1FE09304004818FF1FB015FF1FC7
:10C70000D814FF1FB8A00100E4A001008D14FF1F82
:10C710006007FF1FB914FF1F9414FF1F6807FF1F56
:10C720003808FF1FE1FAC7C2E507FF1F2DE9F04FE8
:10C730002DED028BB7B0B849DFF8F08216A804F0EF
:10C740004FFB0D2005F04EFD4FF47A7005F0D6F842
:10C75000D8F800300393039D42F20F7405F080FD7A
:10C7600048B9D8F800300493049B5B1BA3424FF0F8
:10C77000020040F21181D8F800300593059E05F0C3
:10C780006FFD002840F32284A44FDFF8B892002503
:10C7900005F066FD00280ADD4DB9D8F80030069393
:10C7A000069B42F20F729B1B934240F2F8800421D9
:10C7B0009B4807F05DF89B4804F09AF904219848DB
:10C7C00005F01AFD984804F093F9964804F090F9A2
:10C7D000D8F800300893089D42F20F7405F040FD30
:10C7E00048B9D8F800300993099B5B1BA3424FF06E
:10C7F000020040F200810DF1AB0A53460DF1C10178
:10C80000202203F8012F9942FBD1D8F800300A9377
:10C810000A9B019300273E46D8F800300B930B9BF0
:10C82000019A824C9B1AB3F5FA6F80F00D8105F0E6
:10C8300017FD002809DD002F00F09180012704E09A
:10C8400005F01EFD052005F059F805F009FD00284A
:10C85000F6DC302370498DF8BD3016A88DF8BE3057
:10C8600004F072FB0DF1B0090DF1B50526AC16A967
:10C8700030A804F0C9FA19F8011F204604F022FB81
:10C88000214630A804F0C4FB014616A804F04CFB76
:10C89000204604F065FA30A804F062FA4D45E6D16E
:10C8A00016A930A804F0B0FA9DF8B010204604F0A4
:10C8B00009FB214630A804F0ABFB014616A804F0A2
:10C8C00033FB204604F04CFA30A804F049FA16A9CC
:10C8D00030A804F099FA564930A804F0A1FB0146AB
:10C8E00016A804F021FB30A804F03AFA0DF1AD09C6
:10C8F0000DF1AF0B16A930A804F086FA19F8011F44
:10C90000204604F0DFFA214630A804F081FB0146FE
:10C9100016A804F009FB204604F022FA30A804F01F
:10C920001FFACB45E6D10DF1BE0916A930A804F0D7
:10C930006BFA15F8011F204604F0C4FA214630A80E
:10C9400004F066FB014616A804F0EEFA204604F057
:10C9500007FA30A804F004FA4D45E6D15CE705F08B
:10C960008FFCC0B2A0F12F030B2B05D93E284AD073
:10C97000192004F0C3FF5AE7731C36AADBB2324415
:10C980000A2B02F82C0C01D01E46F1E702362C23AC
:10C99000F6B28DF8B630EBE704F0B0FFDEE605F056
:10C9A0006FFCC4B2204606F0E7FF4FF47A7004F043
:10C9B000A5FF3E2C22D13B780BB901233B701D4BC8
:10C9C000D8F8002007921A780799C9F800104AB1E0
:10C9D00019490A6800208242C8BF02F1FF3218706C
:10C9E000C8BF0A600721154806F042FF0D4804F051
:10C9F0007FF80125CCE604F081FFEFE60221104824
:10CA000006F036FFC4E63946034806F031FF054814
:10CA100004F06EF80127ABE79C9A01000C15FF1F8C
:10CA200060A20100E809FF1FC009FF1F7818FF1F5F
:10CA300074A10100BC14FF1F7015FF1F68A1010045
:10CA400070A101001015FF1F16A9A14804F02AF8D3
:10CA50009F4804F04DF89E4804F04AF805219D488F
:10CA600005F0CAFB9C4804F043F8994804F040F8EC
:10CA700023680C930C9D42F20F7405F0F1FB48B94A
:10CA8000D8F800300D930D9B5B1BA3424FF00200C2
:10CA900040F281800DF1BF030DF1D301202203F894
:10CAA000012F8B42FBD1D8F800300E930027DDF820
:10CAB00038903E46D8F800300F930F9B874CC9EB57
:10CAC0000303B3F5FA6F70D205F0CAFB002808DD46
:10CAD000002F3AD0012704E005F0D2FB052004F036
:10CAE0000DFF05F0BDFB0028F6DC7D497D4804F014
:10CAF0002BFA06B306F1FF3B30AB53FA8BFB0DF17B
:10CB0000BF0526AC7749204604F07EF915F8011FD1
:10CB100022A804F0D7F922A9204604F079FA0146A8
:10CB2000704804F001FA22A804F01AF9204604F033
:10CB300017F95D45E6D16A496A4804F0A3FA68B37B
:10CB40006949684804F000FAB4E705F099FBC4B2FB
:10CB5000A4F12D03012BA4F1300209D9092A07D928
:10CB60003E2C0FD02C2C0DD0192004F0C7FEABE7C3
:10CB7000204606F001FF36AB3344013603F8184C6B
:10CB8000F6B2F1E70021564806F072FE504803F075
:10CB9000AFFF0127E8E704F0B1FE6EE753495148C3
:10CBA00004F070FA0028CBD184E7494803F0A0FFD5
:10CBB00005214F4805F020FB474803F099FF444802
:10CBC00003F096FF23681093109D42F20F7405F056
:10CBD00047FB40B9D8F800301193119B5B1BA3426F
:10CBE0004FF0020071D90DF19703202203F8012FB5
:10CBF0005345FBD1D8F800301293DDF84890002758
:10CC0000D8F800301393139BC9EB0303B3F5FA6F05
:10CC100015D371E005F034FBC4B2204606F0ACFE3B
:10CC2000A4F12D03012BA4F130023ED9092A3CD9ED
:10CC30003E2C41D02C2C3FD0642004F05FFE05F048
:10CC40000FFB002807DD002FE4D004E005F018FBFF
:10CC5000052004F053FE05F003FB0028F6DC204914
:10CC6000244804F071F9002ECAD0751E26AB53FA81
:10CC700085F50DF197041F4922A804F0C5F814F8B2
:10CC8000011F1EA804F01EF91EA922A804F0C0F975
:10CC90000146184804F048F91EA804F061F822A8DB
:10CCA00004F05EF8AC42E6D1AAE736AB3344013675
:10CCB00003F8404CF6B2BFE70021094806F0D8FD62
:10CCC000034803F015FF0127B6E704F017FE7EE7DF
:10CCD000E809FF1F78A10100C009FF1F7818FF1F96
:10CCE0009C9A0100F414FF1FE49A0100389F010090
:10CCF00080A101006C14FF1FB949BA4804F0C2F9C1
:10CD0000002800F08B801321B74806F0B1FDB74929
:10CD1000B74804F0B7F9002800F03781B049B448AB
:10CD200004F012F90721B34806F0A2FDAD49B2485C
:10CD300003F0B8FE0221B14806F09AFDAC49AE48B6
:10CD400003F0B0FEAC4803F0D3FE0421AC4805F07C
:10CD500053FAAC4803F0CCFEA74803F0C9FED8F85C
:10CD600000301493149D42F20F7405F079FA90B9D3
:10CD7000D8F800301593159B5B1BA3424FF00200BF
:10CD800040F2218107E005F07BFAC0B206F0F4FD25
:10CD9000052004F0B3FD05F063FA0028F3DC9A499E
:10CDA0001AA804F01DF816A91EA804F02DF81AA957
:10CDB00022A804F029F81EA922A804F029F9934911
:10CDC00004F02EF9874904F023F9904904F028F97A
:10CDD000874904F01DF901461AA804F0A5F822A815
:10CDE00003F0BEFF1AA9844803F05CFE824803F0FA
:10CDF0007FFE1AA9864804F097F8864B01221EA8E8
:10CE00001A7003F0ADFF1AA803F0AAFF16A803F0EA
:10CE1000A7FF37B0BDEC028BBDE8F08F7E4B7F4A99
:10CE20007F4F804C18701070FEF742FA39782378E3
:10CE3000994200F07881002900F02281172940F002
:10CE40002681794A12781E3A1D2A00F22081774AFB
:10CE500001201070002B40F01D81754B01221A70CB
:10CE60006048744D04F052F90D21B0EE408A7248CA
:10CE700006F0FEFC18EE100A07F09EFC41EC100BC9
:10CE800002215D4803F08CFE5B4803F031FED5EDD6
:10CE9000007A9FED6A7AF4EE477AF1EE10FA40F0EC
:10CEA0001381614B217866483A78664CDFF8C8E117
:10CEB0001B78654E037091424FF0000085ED008AAB
:10CEC00084ED008A8EF80020306000F04E815F4BC8
:10CED00001221A70DFF8A4919FED587AD9ED007AFB
:10CEE000F4EE477AF1EE10FA40F0DF8058494E4AEE
:10CEF0003B785848584D12780B70002189ED008A14
:10CF000002702960002B40F00A811E2A00F207817E
:10CF1000524A13700E21524806F0AAFC306807F0FE
:10CF20004BFC41EC100B0221334803F039FE324830
:10CF300003F0DEFD0E214B4806F09AFC286807F04E
:10CF40003BFC41EC100B02212B4803F029FE2A4840
:10CF500003F0CEFD1121444806F08AFC206807F05A
:10CF60002BFC41EC100B0221234803F019FE224850
:10CF700003F0BEFDFBF798FFFBF79CFD1B491C4827
:10CF800004F080F800287FF4C9AE3849184804F04E
:10CF900079F800287FF4C2AE154804F0B7F81349B9
:10CFA0001348B0EE408A03F0CFFFB0EE480A0121EB
:10CFB00022A803F06FFF22A90D4803F0BDFF22A8AD
:10CFC00003F0CEFEAEE604F099FCCEE6284B1A78CC
:10CFD0000AB901221A70274A13680133136015E752
:10CFE000E49A0100F414FF1F88A101009C9A01003B
:10CFF0006C14FF1F40A20100E809FF1F48A20100B6
:10D000004CA20100C009FF1F54A201008499010035
:10D010003415FF1F7E14FF1F1D07FF1F1F07FF1F73
:10D02000C915FF1F6107FF1F8D14FF1FBB14FF1FD2
:10D03000B914FF1FE007FF1FD09D0100E1FAC742AE
:10D04000E507FF1F3008FF1F3808FF1F6007FF1F9D
:10D05000DC07FF1FEC07FF1F1807FF1F3708FF1F24
:10D06000E09D0100F09D0100009E0100389F01003D
:10D07000BC14FF1F7015FF1F6807FF1F0407FF1F69
:10D08000464A12781E2A02D8454A01201070002B09
:10D090003FF4E6AE013B99427FF4E2AE3F4B1B7892
:10D0A0001E3B1D2B7FF6D9AEDAE637EEC87AF0EEDE
:10D0B000006AB4EEE67AF1EE10FA5DDA38EE678ACD
:10D0C000384D85ED008A25E7374CDFED386A94ED61
:10D0D000007A38EE476AB4EEE66AF1EE10FAC8BF9D
:10D0E000B0EE487A77EEC77AB0EE007AF4EEC77AFF
:10D0F000C8BF84ED008AF1EE10FA21DB4B212C48E9
:10D100002C4E06F0B5FB2C4803F0F2FCD6ED007A6D
:10D1100094ED008A78EE677AC5ED007ADAE6274B5F
:10D1200001221A70F6E61D4A10781E2819D82448E4
:10D13000012505700029A7D017293FF483AEA9E780
:10D14000092120481B4E06F093FB1B4803F0D0FC3E
:10D1500094ED008AD5ED007A78EE677AC6ED007A14
:10D16000B8E600293FF47CAEE6E71E2B3FF6AFAEF3
:10D17000154B00221A70ADE64B211448094D06F0FC
:10D1800077FB0D4803F0B4FC95ED007AD4ED007AFE
:10D1900077EEC77AC9ED007ABCE600BF8D14FF1F99
:10D1A000A915FF1F1807FF1F3008FF1F0AD7A33C50
:10D1B0009CA101003808FF1FE809FF1F3708FF1F67
:10D1C0009414FF1FE8A101006007FF1FF4A10100F4
:10D1D0002DE9F04F6A4C6B4FDFF8BCB13978DFF8BE
:10D1E000BCA1DFF8BC91DFF8BC81674E674D83B00E
:10D1F00000230A22204603F08BFC204603F078FC33
:10D200009BF8001000230A22204603F081FC2046F0
:10D2100003F06EFC9AF8001000230A22204603F067
:10D2200077FC204603F064FC99F8001000230A22E2
:10D23000204603F06DFC204603F05AFC98F80010DD
:10D2400000230A22204603F063FC204603F050FC32
:10D250004F4B0A2219782046002303F059FC204640
:10D2600003F046FC4B4B0A2219782046002303F0BA
:10D270004FFC204603F03CFC01240523D02230461D
:10D2800000213B70019386F83B2086F85E4086F8CB
:10D290005D4002F0BDFD3A78A5FB0231C80800EB05
:10D2A0008001A2EB410202EB0011C9B2304602F04C
:10D2B000AFFD9BF80020A5FB0231C80800EB800100
:10D2C000A2EB410202EB0011C9B2304602F0A0FD10
:10D2D0009AF80020A5FB0231C80800EB8001A2EB00
:10D2E000410202EB0011C9B2304602F091FD99F8FB
:10D2F0000020A5FB0231C80800EB8001A2EB41022F
:10D3000002EB0011C9B2304602F082FD98F800200D
:10D31000A5FB0231C80800EB8001A2EB410202EB41
:10D320000011C9B2304602F073FD194B1A78A5FB03
:10D330000231C80800EB8001A2EB410202EB0011B0
:10D34000C9B2304602F064FD124B1A78A5FB0235D3
:10D35000ED0805EB8501A2EB410202EB0511C9B214
:10D36000304602F055FD2146304602F0BDFE019BDD
:10D37000184604F0C3FA03B0BDE8F04FFDF798BFBC
:10D38000E809FF1F1D15FF1FB008FF1FCDCCCCCC37
:10D390001415FF1FD014FF1F8D14FF1FC915FF1F89
:10D3A000AE15FF1F8D15FF1F2DE9F04F804C8148F2
:10D3B000814D91B002F030FC23680393039B2968F0
:10D3C0007E4A5B1A934200F2FE817D4D2B78002B42
:10D3D00000F0AA807B497C4803F054FE03460028F5
:10D3E00000F0B7807749794803F04CFE03460028E7
:10D3F00040F03E82754976482B7003F053FB744829
:10D4000003F076FB1021734806F032FA724803F0FD
:10D410006FFB6E49704803F045FB6F4803F068FBF3
:10D4200068496A4803F090FD236807936B4B079A9D
:10D430001A606B4EFCF7D4F83378002B00F0AF8005
:10D44000684B1B7853B1236867490A93674A0A9B64
:10D45000096812685B1A934280F07581DFF8AC812D
:10D4600098F8007037B9DFF8A8A19AF80030002BBF
:10D4700040F03A815E4DDFF89C9123685D4A0C9341
:10D4800012680C9B9B1A43F69822934200F2BA81D1
:10D490003378002B00F0CB812B78DFF854A1002BE0
:10D4A00040F0BE80544F3B78002B00F0588199F833
:10D4B0000030002B40F06381DFF85CA19AF8007027
:10D4C000002F40F0B980FDF7B9F9FBF77FFB4B4B1C
:10D4D0004B491A780F70002A40F0888299F8003082
:10D4E00001228AF80020002B40F049812F78002F7C
:10D4F00000F0AB80434ADFF824B111789BF800308C
:10D500000192002099428AF8000000F09E80FBF70B
:10D5100069FF019A99F8003012788BF80020002BEF
:10D5200040F02D812F7892E023682C4A05931168F2
:10D53000059B42F210725B1A93427FF67AAF012389
:10D54000204921482B7003F09DFD034600287FF4FD
:10D5500049AF1D491E482B7003F0A4FA1C48204E09
:10D5600003F0C6FA0E21284806F082F91A4803F0A3
:10D57000BFFA1549184803F095FA174803F0B8FAAE
:10D580001049114803F0E0FC23680693134B069AF8
:10D590001A60FCF725F83378002B7FF451AF04F0C4
:10D5A0005FFE00287FF74CAFFDF786FF48E700BF1E
:10D5B0007818FF1F4818FF1FD814FF1FFF5B2605B0
:10D5C0001E07FF1F9C9A01009815FF1F3415FF1FAF
:10D5D000D009FF1FACA20100E809FF1FB015FF1F13
:10D5E0000615FF1F0C15FF1F1015FF1FE807FF1F73
:10D5F0008D14FF1F8815FF1F2015FF1FBB14FF1F71
:10D600003708FF1F1415FF1F9CA201000415FF1F00
:10D61000E214FF1FC915FF1F7C14FF1FAC15FF1F6D
:10D62000042B04D9AA4F3B78012B00F0A18099F874
:10D630000030002B40F0A3802F7837B1DFF81CA317
:10D640009AF80030012B3FF455AF99F80030072FBE
:10D6500000F0F9809F4A127822B99F490878012882
:10D6600008BF0A709D4A1178994200F08A809C4A4E
:10D67000A2FB0732930803EB8303FB1A13F0FF0F9F
:10D6800000F08880974F3B78012B00F09980FCF7E1
:10D69000CBFE337883B1944E2A783378934D9342FE
:10D6A0000AD0934BA3FB0213DB08C3EB0313D31A7B
:10D6B00013F0FF0F00F0D28022688E4B0D920D996F
:10D6C0001A688D488A4203D902680E920E9A1A602F
:10D6D00023680F930F9B9B1AB3F5FA6F01D9FCF7E0
:10D6E000F9FA11B0BDE8F08F2368844A0B930B9BC5
:10D6F00012689A42BFF4BEAE814BDFF864E21B7839
:10D7000080487A4D80499EF800C0804A90F800E039
:10D710007F480978DFF84C92127880F800C0013316
:10D720002B707C4B7C4819707C4B89F800200222BE
:10D730001A7080F800E0FFF74BFD01238AF80070B3
:10D7400088F8003099E6764A1378002B7FF486AE8D
:10D7500074490B68012003440B6010707EE6FCF7EF
:10D76000A5FF9AF800200123042A3B7040F2438170
:10D7700099F8003000223A70002B3FF45DAF2F780B
:10D7800068E7DFF8E48198F80030002F57D1002BCC
:10D7900000F0EC80534F3B78002B7FF478AFFCF720
:10D7A000A1FE2A784E4BA3FB02139B0803EB8303D5
:10D7B000D31A13F0FF0F4FF001023A703FF467AF36
:10D7C00000233B7063E71321574806F051F82368A4
:10D7D00004930499554800230A2203F099F9534809
:10D7E00003F086F91C21524806F042F829684F4898
:10D7F00000230A2203F08CF94C4803F079F9FCF776
:10D8000085FAE2E54B4FFDF753FDFEF74FF9FCF7C4
:10D810000DF8FAF76BFE3B782BBB474F3B78002B9C
:10D820003FF436AEFBF740FB00233B7030E604F0DC
:10D8300017FD00287FF730AEFDF73EFE2CE6012BEA
:10D840007FF415AFAEE098F800203C49002A3FF481
:10D8500001AF3B48002202700A70FBE6FEF766FF4C
:10D860002B78337028E7FBF725F900233B70D4E7CA
:10D870003449354803F006FC0346002800F0968042
:10D880003049324803F0FEFB034600287FF4D1AD57
:10D890002E492F482B7003F005F92D4803F028F985
:10D8A0000F212C4805F0E4FF204803F021F9274917
:10D8B0001E4803F0F7F81D4803F01AF921492348E0
:10D8C00003F042FB23680993234B099A1A60B0E5E1
:10D8D0002015FF1FAE15FF1F0515FF1F6107FF1F56
:10D8E000CDCCCCCCA815FF1F8014FF1F8D14FF1FBB
:10D8F00089888888DC14FF1F7818FF1FE414FF1F35
:10D90000C815FF1F1C15FF1F1F15FF1F9415FF1FB4
:10D91000D014FF1F8D15FF1F1415FF1F1D15FF1FAE
:10D92000BC14FF1F7015FF1F68A20100E809FF1F4C
:10D930007CA201008C14FF1FE814FF1F0415FF1FB9
:10D94000E214FF1F9C9A01002415FF1FB815FF1F4A
:10D95000D009FF1FD0A20100B015FF1F7C14FF1FCC
:10D96000BA14FF1FC915FF1F4415FF1F0192FDF7D1
:10D97000DFF8FBF71DFB244B244819780770019A48
:10D9800019B123491F7001230B70137899F8001007
:10D990002F780122994288F800207FF468AE002F8A
:10D9A0003FF4F8AE002388F8003060E619491A48C1
:10D9B0002B7003F077F8184803F09AF80F211748F6
:10D9C00005F056FF164803F093F81249144803F087
:10D9D00069F8134803F08CF812490E4803F0B4FAC2
:10D9E00023680893104B089A1A6022E50F4A1F70AB
:10D9F0000123137072E599F80030002B7FF4BFAE5D
:10DA0000002A3FF459AD17E6B914FF1F6007FF1F46
:10DA10009414FF1F2415FF1FD009FF1FC0A201008F
:10DA2000E809FF1F9C9A0100B015FF1FA915FF1FF1
:10DA300000207047704700BF10B582B002AB02688B
:10DA400003F8011D546819460122A04702B010BD19
:10DA5000C06938B18369C06847F6FF72181A9042EE
:10DA600028BF1046704700BFC36910B504463BB1DC
:10DA700000201871E06901F023FDE3691B791BB1F7
:10DA800001232371002010BD10BD00BFC06978B113
:10DA900000B583B001220DF1070101F0ADFA0128B4
:10DAA0000CBF9DF807004FF0FF3003B05DF804FB9A
:10DAB0004FF0FF30704700BFC369C3B110B582B0EB
:10DAC0000446012218460DF1070101F095FA0128DC
:10DAD00003D04FF0FF3002B010BDE0699DF8074061
:10DAE000C168013901F044FB204602B010BD184660
:10DAF000704700BFC06908B101F06CBB704700BF40
:10DB00002DE9F04105464FF47A731348AB600023CA
:10DB100028602B712B7324200C46904607F032FAB4
:10DB2000E861B0B1064604F1200E20686168A26881
:10DB3000E36837460FC7103474453E46F5D1206878
:10DB4000386041460C2205F10D0008F0F7FA002379
:10DB50006B762846BDE8F081D4A501004FF47A72B7
